{"test/mocks/contracts/facets/MockTestFacet.sol":{"MockTestFacet":{"abi":[{"inputs":[{"internalType":"uint256","name":"a","type":"uint256"},{"internalType":"uint256","name":"b","type":"uint256"}],"name":"add","outputs":[{"internalType":"uint256","name":"","type":"uint256"}],"stateMutability":"pure","type":"function"},{"inputs":[{"internalType":"uint256","name":"a","type":"uint256"},{"internalType":"uint256","name":"b","type":"uint256"}],"name":"divide","outputs":[{"internalType":"uint256","name":"","type":"uint256"}],"stateMutability":"pure","type":"function"},{"inputs":[],"name":"getValue","outputs":[{"internalType":"uint256","name":"","type":"uint256"}],"stateMutability":"view","type":"function"},{"inputs":[],"name":"initialize","outputs":[],"stateMutability":"nonpayable","type":"function"},{"inputs":[],"name":"initialized","outputs":[{"internalType":"bool","name":"","type":"bool"}],"stateMutability":"view","type":"function"},{"inputs":[{"internalType":"uint256","name":"a","type":"uint256"},{"internalType":"uint256","name":"b","type":"uint256"}],"name":"multiply","outputs":[{"internalType":"uint256","name":"","type":"uint256"}],"stateMutability":"pure","type":"function"},{"inputs":[],"name":"reinitialize","outputs":[],"stateMutability":"nonpayable","type":"function"},{"inputs":[{"internalType":"uint256","name":"_value","type":"uint256"}],"name":"setValue","outputs":[],"stateMutability":"nonpayable","type":"function"},{"inputs":[{"internalType":"uint256","name":"a","type":"uint256"},{"internalType":"uint256","name":"b","type":"uint256"}],"name":"subtract","outputs":[{"internalType":"uint256","name":"","type":"uint256"}],"stateMutability":"pure","type":"function"},{"inputs":[],"name":"value","outputs":[{"internalType":"uint256","name":"","type":"uint256"}],"stateMutability":"view","type":"function"}],"evm":{"bytecode":{"linkReferences":{},"object":"608060405234801561001057600080fd5b50610338806100206000396000f3fe608060405234801561001057600080fd5b506004361061009e5760003560e01c80635524107711610066578063552410771461010a5780636c2eb3501461011f578063771602f7146101355780638129fc1c14610148578063f88e9fbf1461015057600080fd5b8063158ef93e146100a3578063165c4a16146100c557806320965255146100e65780633ef5e445146100ee5780633fa4f24514610101575b600080fd5b6001546100b09060ff1681565b60405190151581526020015b60405180910390f35b6100d86100d3366004610252565b610163565b6040519081526020016100bc565b6000546100d8565b6100d86100fc366004610252565b610178565b6100d860005481565b61011d610118366004610274565b600055565b005b61011d6001805460ff1916811790556064600055565b6100d8610143366004610252565b610192565b61011d61019e565b6100d861015e366004610252565b6101ff565b600061016f82846102a3565b90505b92915050565b600081831161018857600061016f565b61016f82846102ba565b600061016f82846102cd565b60015460ff16156101ec5760405162461bcd60e51b8152602060048201526013602482015272105b1c9958591e481a5b9a5d1a585b1a5e9959606a1b60448201526064015b60405180910390fd5b6001805460ff191681179055602a600055565b60008082116102485760405162461bcd60e51b815260206004820152601560248201527443616e6e6f7420646976696465206279207a65726f60581b60448201526064016101e3565b61016f82846102e0565b6000806040838503121561026557600080fd5b50508035926020909101359150565b60006020828403121561028657600080fd5b5035919050565b634e487b7160e01b600052601160045260246000fd5b80820281158282048414176101725761017261028d565b818103818111156101725761017261028d565b808201808211156101725761017261028d565b6000826102fd57634e487b7160e01b600052601260045260246000fd5b50049056fea2646970667358221220cf8549b8d3bbcb1842fa489c59faf89759b5d561f216ac03925ec7a9f083d53064736f6c63430008110033","opcodes":"PUSH1 0x80 PUSH1 0x40 MSTORE CALLVALUE DUP1 ISZERO PUSH2 0x10 JUMPI PUSH1 0x0 DUP1 REVERT JUMPDEST POP PUSH2 0x338 DUP1 PUSH2 0x20 PUSH1 0x0 CODECOPY PUSH1 0x0 RETURN INVALID PUSH1 0x80 PUSH1 0x40 MSTORE CALLVALUE DUP1 ISZERO PUSH2 0x10 JUMPI PUSH1 0x0 DUP1 REVERT JUMPDEST POP PUSH1 0x4 CALLDATASIZE LT PUSH2 0x9E JUMPI PUSH1 0x0 CALLDATALOAD PUSH1 0xE0 SHR DUP1 PUSH4 0x55241077 GT PUSH2 0x66 JUMPI DUP1 PUSH4 0x55241077 EQ PUSH2 0x10A JUMPI DUP1 PUSH4 0x6C2EB350 EQ PUSH2 0x11F JUMPI DUP1 PUSH4 0x771602F7 EQ PUSH2 0x135 JUMPI DUP1 PUSH4 0x8129FC1C EQ PUSH2 0x148 JUMPI DUP1 PUSH4 0xF88E9FBF EQ PUSH2 0x150 JUMPI PUSH1 0x0 DUP1 REVERT JUMPDEST DUP1 PUSH4 0x158EF93E EQ PUSH2 0xA3 JUMPI DUP1 PUSH4 0x165C4A16 EQ PUSH2 0xC5 JUMPI DUP1 PUSH4 0x20965255 EQ PUSH2 0xE6 JUMPI DUP1 PUSH4 0x3EF5E445 EQ PUSH2 0xEE JUMPI DUP1 PUSH4 0x3FA4F245 EQ PUSH2 0x101 JUMPI JUMPDEST PUSH1 0x0 DUP1 REVERT JUMPDEST PUSH1 0x1 SLOAD PUSH2 0xB0 SWAP1 PUSH1 0xFF AND DUP2 JUMP JUMPDEST PUSH1 0x40 MLOAD SWAP1 ISZERO ISZERO DUP2 MSTORE PUSH1 0x20 ADD JUMPDEST PUSH1 0x40 MLOAD DUP1 SWAP2 SUB SWAP1 RETURN JUMPDEST PUSH2 0xD8 PUSH2 0xD3 CALLDATASIZE PUSH1 0x4 PUSH2 0x252 JUMP JUMPDEST PUSH2 0x163 JUMP JUMPDEST PUSH1 0x40 MLOAD SWAP1 DUP2 MSTORE PUSH1 0x20 ADD PUSH2 0xBC JUMP JUMPDEST PUSH1 0x0 SLOAD PUSH2 0xD8 JUMP JUMPDEST PUSH2 0xD8 PUSH2 0xFC CALLDATASIZE PUSH1 0x4 PUSH2 0x252 JUMP JUMPDEST PUSH2 0x178 JUMP JUMPDEST PUSH2 0xD8 PUSH1 0x0 SLOAD DUP2 JUMP JUMPDEST PUSH2 0x11D PUSH2 0x118 CALLDATASIZE PUSH1 0x4 PUSH2 0x274 JUMP JUMPDEST PUSH1 0x0 SSTORE JUMP JUMPDEST STOP JUMPDEST PUSH2 0x11D PUSH1 0x1 DUP1 SLOAD PUSH1 0xFF NOT AND DUP2 OR SWAP1 SSTORE PUSH1 0x64 PUSH1 0x0 SSTORE JUMP JUMPDEST PUSH2 0xD8 PUSH2 0x143 CALLDATASIZE PUSH1 0x4 PUSH2 0x252 JUMP JUMPDEST PUSH2 0x192 JUMP JUMPDEST PUSH2 0x11D PUSH2 0x19E JUMP JUMPDEST PUSH2 0xD8 PUSH2 0x15E CALLDATASIZE PUSH1 0x4 PUSH2 0x252 JUMP JUMPDEST PUSH2 0x1FF JUMP JUMPDEST PUSH1 0x0 PUSH2 0x16F DUP3 DUP5 PUSH2 0x2A3 JUMP JUMPDEST SWAP1 POP JUMPDEST SWAP3 SWAP2 POP POP JUMP JUMPDEST PUSH1 0x0 DUP2 DUP4 GT PUSH2 0x188 JUMPI PUSH1 0x0 PUSH2 0x16F JUMP JUMPDEST PUSH2 0x16F DUP3 DUP5 PUSH2 0x2BA JUMP JUMPDEST PUSH1 0x0 PUSH2 0x16F DUP3 DUP5 PUSH2 0x2CD JUMP JUMPDEST PUSH1 0x1 SLOAD PUSH1 0xFF AND ISZERO PUSH2 0x1EC JUMPI PUSH1 0x40 MLOAD PUSH3 0x461BCD PUSH1 0xE5 SHL DUP2 MSTORE PUSH1 0x20 PUSH1 0x4 DUP3 ADD MSTORE PUSH1 0x13 PUSH1 0x24 DUP3 ADD MSTORE PUSH19 0x105B1C9958591E481A5B9A5D1A585B1A5E9959 PUSH1 0x6A SHL PUSH1 0x44 DUP3 ADD MSTORE PUSH1 0x64 ADD JUMPDEST PUSH1 0x40 MLOAD DUP1 SWAP2 SUB SWAP1 REVERT JUMPDEST PUSH1 0x1 DUP1 SLOAD PUSH1 0xFF NOT AND DUP2 OR SWAP1 SSTORE PUSH1 0x2A PUSH1 0x0 SSTORE JUMP JUMPDEST PUSH1 0x0 DUP1 DUP3 GT PUSH2 0x248 JUMPI PUSH1 0x40 MLOAD PUSH3 0x461BCD PUSH1 0xE5 SHL DUP2 MSTORE PUSH1 0x20 PUSH1 0x4 DUP3 ADD MSTORE PUSH1 0x15 PUSH1 0x24 DUP3 ADD MSTORE PUSH21 0x43616E6E6F7420646976696465206279207A65726F PUSH1 0x58 SHL PUSH1 0x44 DUP3 ADD MSTORE PUSH1 0x64 ADD PUSH2 0x1E3 JUMP JUMPDEST PUSH2 0x16F DUP3 DUP5 PUSH2 0x2E0 JUMP JUMPDEST PUSH1 0x0 DUP1 PUSH1 0x40 DUP4 DUP6 SUB SLT ISZERO PUSH2 0x265 JUMPI PUSH1 0x0 DUP1 REVERT JUMPDEST POP POP DUP1 CALLDATALOAD SWAP3 PUSH1 0x20 SWAP1 SWAP2 ADD CALLDATALOAD SWAP2 POP JUMP JUMPDEST PUSH1 0x0 PUSH1 0x20 DUP3 DUP5 SUB SLT ISZERO PUSH2 0x286 JUMPI PUSH1 0x0 DUP1 REVERT JUMPDEST POP CALLDATALOAD SWAP2 SWAP1 POP JUMP JUMPDEST PUSH4 0x4E487B71 PUSH1 0xE0 SHL PUSH1 0x0 MSTORE PUSH1 0x11 PUSH1 0x4 MSTORE PUSH1 0x24 PUSH1 0x0 REVERT JUMPDEST DUP1 DUP3 MUL DUP2 ISZERO DUP3 DUP3 DIV DUP5 EQ OR PUSH2 0x172 JUMPI PUSH2 0x172 PUSH2 0x28D JUMP JUMPDEST DUP2 DUP2 SUB DUP2 DUP2 GT ISZERO PUSH2 0x172 JUMPI PUSH2 0x172 PUSH2 0x28D JUMP JUMPDEST DUP1 DUP3 ADD DUP1 DUP3 GT ISZERO PUSH2 0x172 JUMPI PUSH2 0x172 PUSH2 0x28D JUMP JUMPDEST PUSH1 0x0 DUP3 PUSH2 0x2FD JUMPI PUSH4 0x4E487B71 PUSH1 0xE0 SHL PUSH1 0x0 MSTORE PUSH1 0x12 PUSH1 0x4 MSTORE PUSH1 0x24 PUSH1 0x0 REVERT JUMPDEST POP DIV SWAP1 JUMP INVALID LOG2 PUSH5 0x6970667358 0x22 SLT KECCAK256 0xCF DUP6 0x49 0xB8 0xD3 0xBB 0xCB XOR TIMESTAMP STATICCALL BASEFEE SWAP13 MSIZE STATICCALL 0xF8 SWAP8 MSIZE 0xB5 0xD5 PUSH2 0xF216 0xAC SUB SWAP3 0x5E 0xC7 0xA9 CREATE DUP4 0xD5 ADDRESS PUSH5 0x736F6C6343 STOP ADDMOD GT STOP CALLER "},"methodIdentifiers":{"add(uint256,uint256)":"771602f7","divide(uint256,uint256)":"f88e9fbf","getValue()":"20965255","initialize()":"8129fc1c","initialized()":"158ef93e","multiply(uint256,uint256)":"165c4a16","reinitialize()":"6c2eb350","setValue(uint256)":"55241077","subtract(uint256,uint256)":"3ef5e445","value()":"3fa4f245"}}}}}