{"test/mocks/contracts/MockDiamond.sol":{"MockDiamond":{"abi":[{"inputs":[{"internalType":"address","name":"_owner","type":"address"},{"internalType":"address","name":"_diamondCutFacet","type":"address"}],"stateMutability":"nonpayable","type":"constructor"},{"anonymous":false,"inputs":[{"components":[{"internalType":"address","name":"facetAddress","type":"address"},{"internalType":"enum IDiamondCut.FacetCutAction","name":"action","type":"uint8"},{"internalType":"bytes4[]","name":"functionSelectors","type":"bytes4[]"}],"indexed":false,"internalType":"struct IDiamondCut.FacetCut[]","name":"_diamondCut","type":"tuple[]"},{"indexed":false,"internalType":"address","name":"_init","type":"address"},{"indexed":false,"internalType":"bytes","name":"_calldata","type":"bytes"}],"name":"DiamondCut","type":"event"},{"stateMutability":"payable","type":"fallback"},{"inputs":[],"name":"getFacetAddresses","outputs":[{"internalType":"address[]","name":"","type":"address[]"}],"stateMutability":"view","type":"function"},{"inputs":[{"internalType":"bytes4","name":"_selector","type":"bytes4"}],"name":"getFacetForSelector","outputs":[{"internalType":"address","name":"","type":"address"}],"stateMutability":"view","type":"function"},{"inputs":[{"components":[{"internalType":"address","name":"facetAddress","type":"address"},{"internalType":"enum IDiamondCut.FacetCutAction","name":"action","type":"uint8"},{"internalType":"bytes4[]","name":"functionSelectors","type":"bytes4[]"}],"internalType":"struct IDiamondCut.FacetCut[]","name":"_diamondCut","type":"tuple[]"},{"internalType":"address","name":"_init","type":"address"},{"internalType":"bytes","name":"_calldata","type":"bytes"}],"name":"testDiamondCut","outputs":[],"stateMutability":"nonpayable","type":"function"},{"stateMutability":"payable","type":"receive"}],"evm":{"bytecode":{"linkReferences":{},"object":"60a060405234801561001057600080fd5b506040516111bf3803806111bf83398101604081905261002f9161011c565b600080546001600160a01b03199081166001600160a01b039485161782559190921660808190527f04b67899e087d68fbcac935dea360d2b2615fd123c427fc4e811c29caaaa443980548316821790556002805460018181019092557f405787fa12a823e0f2b7631cc41b3ba8828b3321ca811111fa75cd3aa3bb5ace0180549093168217909255825260036020908152604083208054928301815583529091206008820401805463ffffffff60079093166004026101000a9283021916631f931c1c90920291909117905561014f565b80516001600160a01b038116811461011757600080fd5b919050565b6000806040838503121561012f57600080fd5b61013883610100565b915061014660208401610100565b90509250929050565b608051611058610167600039600050506110586000f3fe6080604052600436106100385760003560e01c80633bed2f49146100da57806368d49ba114610105578063ac642c0f1461015d5761003f565b3661003f57005b600080356001600160e01b0319168152600160205260409020546001600160a01b0316806100b45760405162461bcd60e51b815260206004820181905260248201527f4469616d6f6e643a2046756e6374696f6e20646f6573206e6f7420657869737460448201526064015b60405180910390fd5b3660008037600080366000845af43d6000803e8080156100d3573d6000f35b3d6000fd5b005b3480156100e657600080fd5b506100ef61017d565b6040516100fc9190610ade565b60405180910390f35b34801561011157600080fd5b50610145610120366004610b48565b6001600160e01b0319166000908152600160205260409020546001600160a01b031690565b6040516001600160a01b0390911681526020016100fc565b34801561016957600080fd5b506100d8610178366004610c85565b6101df565b606060028054806020026020016040519081016040528092919081815260200182805480156101d557602002820191906000526020600020905b81546001600160a01b031681526001909101906020018083116101b7575b5050505050905090565b7f8faa70878671ccd212d20771b795c50af8fd3ff6cf27f4bde57e5d4de0aeb67383838360405161021293929190610e92565b60405180910390a160005b8351811015610a0d57600084828151811061023a5761023a610f92565b602002602001015190506000600281111561025757610257610e2c565b8160200151600281111561026d5761026d610e2c565b036103f7576000805b6002548110156102d65782600001516001600160a01b0316600282815481106102a1576102a1610f92565b6000918252602090912001546001600160a01b0316036102c457600191506102d6565b806102ce81610fbe565b915050610276565b508061032e578151600280546001810182556000919091527f405787fa12a823e0f2b7631cc41b3ba8828b3321ca811111fa75cd3aa3bb5ace0180546001600160a01b0319166001600160a01b039092169190911790555b60005b8260400151518110156103f05760008360400151828151811061035657610356610f92565b60209081029190910181015185516001600160e01b0319821660009081526001808552604080832080546001600160a01b0319166001600160a01b039586161790558951909316825260038552918120805492830181558152929092206008830401805463ffffffff60079094166004026101000a938402191660e09290921c9290920217905550806103e881610fbe565b915050610331565b50506109fa565b60018160200151600281111561040f5761040f610e2c565b036107905760005b81604001515181101561078a5760008260400151828151811061043c5761043c610f92565b6020908102919091018101516001600160e01b03198116600090815260019092526040909120549091506001600160a01b0316801561063b5760005b6001600160a01b038216600090815260036020526040902054811015610639576001600160a01b038216600090815260036020526040902080546001600160e01b031985169190839081106104cf576104cf610f92565b90600052602060002090600891828204019190066004029054906101000a900460e01b6001600160e01b03191603610627576001600160a01b0382166000908152600360205260409020805461052790600190610fd7565b8154811061053757610537610f92565b90600052602060002090600891828204019190066004029054906101000a900460e01b60036000846001600160a01b03166001600160a01b03168152602001908152602001600020828154811061059057610590610f92565b90600052602060002090600891828204019190066004026101000a81548163ffffffff021916908360e01c021790555060036000836001600160a01b03166001600160a01b031681526020019081526020016000208054806105f4576105f4610ff0565b600082815260209020600860001990920191820401805463ffffffff600460078516026101000a02191690559055610639565b8061063181610fbe565b915050610478565b505b83516001600160e01b03198316600090815260016020818152604080842080546001600160a01b0319166001600160a01b0396871617905588519094168352600381529282208054918201815582529181206008830401805463ffffffff60079094166004026101000a938402191660e086901c9390930292909217909155805b60025481101561071c5785600001516001600160a01b0316600282815481106106e7576106e7610f92565b6000918252602090912001546001600160a01b03160361070a576001915061071c565b8061071481610fbe565b9150506106bc565b5080610774578451600280546001810182556000919091527f405787fa12a823e0f2b7631cc41b3ba8828b3321ca811111fa75cd3aa3bb5ace0180546001600160a01b0319166001600160a01b039092169190911790555b505050808061078290610fbe565b915050610417565b506109fa565b6002816020015160028111156107a8576107a8610e2c565b036109fa5760005b8160400151518110156109f8576000826040015182815181106107d5576107d5610f92565b6020908102919091018101516001600160e01b0319811660009081526001909252604090912080546001600160a01b031981169091559091506001600160a01b031680156109e35760005b6001600160a01b0382166000908152600360205260409020548110156109e1576001600160a01b038216600090815260036020526040902080546001600160e01b0319851691908390811061087757610877610f92565b90600052602060002090600891828204019190066004029054906101000a900460e01b6001600160e01b031916036109cf576001600160a01b038216600090815260036020526040902080546108cf90600190610fd7565b815481106108df576108df610f92565b90600052602060002090600891828204019190066004029054906101000a900460e01b60036000846001600160a01b03166001600160a01b03168152602001908152602001600020828154811061093857610938610f92565b90600052602060002090600891828204019190066004026101000a81548163ffffffff021916908360e01c021790555060036000836001600160a01b03166001600160a01b0316815260200190815260200160002080548061099c5761099c610ff0565b600082815260209020600860001990920191820401805463ffffffff600460078516026101000a021916905590556109e1565b806109d981610fbe565b915050610820565b505b505080806109f090610fbe565b9150506107b0565b505b5080610a0581610fbe565b91505061021d565b506001600160a01b03821615801590610a27575060008151115b15610ad9576000826001600160a01b031682604051610a469190611006565b600060405180830381855af49150503d8060008114610a81576040519150601f19603f3d011682016040523d82523d6000602084013e610a86565b606091505b5050905080610ad75760405162461bcd60e51b815260206004820152601d60248201527f4469616d6f6e643a20496e69742066756e6374696f6e206661696c656400000060448201526064016100ab565b505b505050565b6020808252825182820181905260009190848201906040850190845b81811015610b1f5783516001600160a01b031683529284019291840191600101610afa565b50909695505050505050565b80356001600160e01b031981168114610b4357600080fd5b919050565b600060208284031215610b5a57600080fd5b610b6382610b2b565b9392505050565b634e487b7160e01b600052604160045260246000fd5b6040516060810167ffffffffffffffff81118282101715610ba357610ba3610b6a565b60405290565b604051601f8201601f1916810167ffffffffffffffff81118282101715610bd257610bd2610b6a565b604052919050565b600067ffffffffffffffff821115610bf457610bf4610b6a565b5060051b60200190565b80356001600160a01b0381168114610b4357600080fd5b600082601f830112610c2657600080fd5b813567ffffffffffffffff811115610c4057610c40610b6a565b610c53601f8201601f1916602001610ba9565b818152846020838601011115610c6857600080fd5b816020850160208301376000918101602001919091529392505050565b600080600060608486031215610c9a57600080fd5b67ffffffffffffffff8085351115610cb157600080fd5b8435850186601f820112610cc457600080fd5b610cd6610cd18235610bda565b610ba9565b81358082526020808301929160051b84010189811115610cf557600080fd5b602084015b81811015610ded578581351115610d1057600080fd5b803585016060818d03601f19011215610d2857600080fd5b610d30610b80565b610d3c60208301610bfe565b8152604082013560038110610d5057600080fd5b6020820152606082013588811115610d6757600080fd5b8083019250508c603f830112610d7c57600080fd5b6020820135610d8d610cd182610bda565b81815260059190911b83016040019060208101908f831115610dae57600080fd5b6040850194505b82851015610dd757610dc685610b2b565b825260209485019490910190610db5565b6040840152505085525060209384019301610cfa565b5050809650505050610e0160208601610bfe565b9250604085013581811115610e1557600080fd5b610e2187828801610c15565b925050509250925092565b634e487b7160e01b600052602160045260246000fd5b60005b83811015610e5d578181015183820152602001610e45565b50506000910152565b60008151808452610e7e816020860160208601610e42565b601f01601f19169290920160200192915050565b60006060808301818452808751808352608092508286019150828160051b8701016020808b0160005b84811015610f6257898403607f19018652815180516001600160a01b03168552838101518986019060038110610f0157634e487b7160e01b600052602160045260246000fd5b868601526040918201519186018a905281519081905290840190600090898701905b80831015610f4d5783516001600160e01b0319168252928601926001929092019190860190610f23565b50978501979550505090820190600101610ebb565b50506001600160a01b038a16908801528681036040880152610f848189610e66565b9a9950505050505050505050565b634e487b7160e01b600052603260045260246000fd5b634e487b7160e01b600052601160045260246000fd5b600060018201610fd057610fd0610fa8565b5060010190565b81810381811115610fea57610fea610fa8565b92915050565b634e487b7160e01b600052603160045260246000fd5b60008251611018818460208701610e42565b919091019291505056fea26469706673582212209f6d220202ecf00b3c17daf55edd26ea6f4b83dbceb701bd5943439c87ab369c64736f6c63430008110033","opcodes":"PUSH1 0xA0 PUSH1 0x40 MSTORE CALLVALUE DUP1 ISZERO PUSH2 0x10 JUMPI PUSH1 0x0 DUP1 REVERT JUMPDEST POP PUSH1 0x40 MLOAD PUSH2 0x11BF CODESIZE SUB DUP1 PUSH2 0x11BF DUP4 CODECOPY DUP2 ADD PUSH1 0x40 DUP2 SWAP1 MSTORE PUSH2 0x2F SWAP2 PUSH2 0x11C JUMP JUMPDEST PUSH1 0x0 DUP1 SLOAD PUSH1 0x1 PUSH1 0x1 PUSH1 0xA0 SHL SUB NOT SWAP1 DUP2 AND PUSH1 0x1 PUSH1 0x1 PUSH1 0xA0 SHL SUB SWAP5 DUP6 AND OR DUP3 SSTORE SWAP2 SWAP1 SWAP3 AND PUSH1 0x80 DUP2 SWAP1 MSTORE PUSH32 0x4B67899E087D68FBCAC935DEA360D2B2615FD123C427FC4E811C29CAAAA4439 DUP1 SLOAD DUP4 AND DUP3 OR SWAP1 SSTORE PUSH1 0x2 DUP1 SLOAD PUSH1 0x1 DUP2 DUP2 ADD SWAP1 SWAP3 SSTORE PUSH32 0x405787FA12A823E0F2B7631CC41B3BA8828B3321CA811111FA75CD3AA3BB5ACE ADD DUP1 SLOAD SWAP1 SWAP4 AND DUP3 OR SWAP1 SWAP3 SSTORE DUP3 MSTORE PUSH1 0x3 PUSH1 0x20 SWAP1 DUP2 MSTORE PUSH1 0x40 DUP4 KECCAK256 DUP1 SLOAD SWAP3 DUP4 ADD DUP2 SSTORE DUP4 MSTORE SWAP1 SWAP2 KECCAK256 PUSH1 0x8 DUP3 DIV ADD DUP1 SLOAD PUSH4 0xFFFFFFFF PUSH1 0x7 SWAP1 SWAP4 AND PUSH1 0x4 MUL PUSH2 0x100 EXP SWAP3 DUP4 MUL NOT AND PUSH4 0x1F931C1C SWAP1 SWAP3 MUL SWAP2 SWAP1 SWAP2 OR SWAP1 SSTORE PUSH2 0x14F JUMP JUMPDEST DUP1 MLOAD PUSH1 0x1 PUSH1 0x1 PUSH1 0xA0 SHL SUB DUP2 AND DUP2 EQ PUSH2 0x117 JUMPI PUSH1 0x0 DUP1 REVERT JUMPDEST SWAP2 SWAP1 POP JUMP JUMPDEST PUSH1 0x0 DUP1 PUSH1 0x40 DUP4 DUP6 SUB SLT ISZERO PUSH2 0x12F JUMPI PUSH1 0x0 DUP1 REVERT JUMPDEST PUSH2 0x138 DUP4 PUSH2 0x100 JUMP JUMPDEST SWAP2 POP PUSH2 0x146 PUSH1 0x20 DUP5 ADD PUSH2 0x100 JUMP JUMPDEST SWAP1 POP SWAP3 POP SWAP3 SWAP1 POP JUMP JUMPDEST PUSH1 0x80 MLOAD PUSH2 0x1058 PUSH2 0x167 PUSH1 0x0 CODECOPY PUSH1 0x0 POP POP PUSH2 0x1058 PUSH1 0x0 RETURN INVALID PUSH1 0x80 PUSH1 0x40 MSTORE PUSH1 0x4 CALLDATASIZE LT PUSH2 0x38 JUMPI PUSH1 0x0 CALLDATALOAD PUSH1 0xE0 SHR DUP1 PUSH4 0x3BED2F49 EQ PUSH2 0xDA JUMPI DUP1 PUSH4 0x68D49BA1 EQ PUSH2 0x105 JUMPI DUP1 PUSH4 0xAC642C0F EQ PUSH2 0x15D JUMPI PUSH2 0x3F JUMP JUMPDEST CALLDATASIZE PUSH2 0x3F JUMPI STOP JUMPDEST PUSH1 0x0 DUP1 CALLDATALOAD PUSH1 0x1 PUSH1 0x1 PUSH1 0xE0 SHL SUB NOT AND DUP2 MSTORE PUSH1 0x1 PUSH1 0x20 MSTORE PUSH1 0x40 SWAP1 KECCAK256 SLOAD PUSH1 0x1 PUSH1 0x1 PUSH1 0xA0 SHL SUB AND DUP1 PUSH2 0xB4 JUMPI PUSH1 0x40 MLOAD PUSH3 0x461BCD PUSH1 0xE5 SHL DUP2 MSTORE PUSH1 0x20 PUSH1 0x4 DUP3 ADD DUP2 SWAP1 MSTORE PUSH1 0x24 DUP3 ADD MSTORE PUSH32 0x4469616D6F6E643A2046756E6374696F6E20646F6573206E6F74206578697374 PUSH1 0x44 DUP3 ADD MSTORE PUSH1 0x64 ADD JUMPDEST PUSH1 0x40 MLOAD DUP1 SWAP2 SUB SWAP1 REVERT JUMPDEST CALLDATASIZE PUSH1 0x0 DUP1 CALLDATACOPY PUSH1 0x0 DUP1 CALLDATASIZE PUSH1 0x0 DUP5 GAS DELEGATECALL RETURNDATASIZE PUSH1 0x0 DUP1 RETURNDATACOPY DUP1 DUP1 ISZERO PUSH2 0xD3 JUMPI RETURNDATASIZE PUSH1 0x0 RETURN JUMPDEST RETURNDATASIZE PUSH1 0x0 REVERT JUMPDEST STOP JUMPDEST CALLVALUE DUP1 ISZERO PUSH2 0xE6 JUMPI PUSH1 0x0 DUP1 REVERT JUMPDEST POP PUSH2 0xEF PUSH2 0x17D JUMP JUMPDEST PUSH1 0x40 MLOAD PUSH2 0xFC SWAP2 SWAP1 PUSH2 0xADE JUMP JUMPDEST PUSH1 0x40 MLOAD DUP1 SWAP2 SUB SWAP1 RETURN JUMPDEST CALLVALUE DUP1 ISZERO PUSH2 0x111 JUMPI PUSH1 0x0 DUP1 REVERT JUMPDEST POP PUSH2 0x145 PUSH2 0x120 CALLDATASIZE PUSH1 0x4 PUSH2 0xB48 JUMP JUMPDEST PUSH1 0x1 PUSH1 0x1 PUSH1 0xE0 SHL SUB NOT AND PUSH1 0x0 SWAP1 DUP2 MSTORE PUSH1 0x1 PUSH1 0x20 MSTORE PUSH1 0x40 SWAP1 KECCAK256 SLOAD PUSH1 0x1 PUSH1 0x1 PUSH1 0xA0 SHL SUB AND SWAP1 JUMP JUMPDEST PUSH1 0x40 MLOAD PUSH1 0x1 PUSH1 0x1 PUSH1 0xA0 SHL SUB SWAP1 SWAP2 AND DUP2 MSTORE PUSH1 0x20 ADD PUSH2 0xFC JUMP JUMPDEST CALLVALUE DUP1 ISZERO PUSH2 0x169 JUMPI PUSH1 0x0 DUP1 REVERT JUMPDEST POP PUSH2 0xD8 PUSH2 0x178 CALLDATASIZE PUSH1 0x4 PUSH2 0xC85 JUMP JUMPDEST PUSH2 0x1DF JUMP JUMPDEST PUSH1 0x60 PUSH1 0x2 DUP1 SLOAD DUP1 PUSH1 0x20 MUL PUSH1 0x20 ADD PUSH1 0x40 MLOAD SWAP1 DUP2 ADD PUSH1 0x40 MSTORE DUP1 SWAP3 SWAP2 SWAP1 DUP2 DUP2 MSTORE PUSH1 0x20 ADD DUP3 DUP1 SLOAD DUP1 ISZERO PUSH2 0x1D5 JUMPI PUSH1 0x20 MUL DUP3 ADD SWAP2 SWAP1 PUSH1 0x0 MSTORE PUSH1 0x20 PUSH1 0x0 KECCAK256 SWAP1 JUMPDEST DUP2 SLOAD PUSH1 0x1 PUSH1 0x1 PUSH1 0xA0 SHL SUB AND DUP2 MSTORE PUSH1 0x1 SWAP1 SWAP2 ADD SWAP1 PUSH1 0x20 ADD DUP1 DUP4 GT PUSH2 0x1B7 JUMPI JUMPDEST POP POP POP POP POP SWAP1 POP SWAP1 JUMP JUMPDEST PUSH32 0x8FAA70878671CCD212D20771B795C50AF8FD3FF6CF27F4BDE57E5D4DE0AEB673 DUP4 DUP4 DUP4 PUSH1 0x40 MLOAD PUSH2 0x212 SWAP4 SWAP3 SWAP2 SWAP1 PUSH2 0xE92 JUMP JUMPDEST PUSH1 0x40 MLOAD DUP1 SWAP2 SUB SWAP1 LOG1 PUSH1 0x0 JUMPDEST DUP4 MLOAD DUP2 LT ISZERO PUSH2 0xA0D JUMPI PUSH1 0x0 DUP5 DUP3 DUP2 MLOAD DUP2 LT PUSH2 0x23A JUMPI PUSH2 0x23A PUSH2 0xF92 JUMP JUMPDEST PUSH1 0x20 MUL PUSH1 0x20 ADD ADD MLOAD SWAP1 POP PUSH1 0x0 PUSH1 0x2 DUP2 GT ISZERO PUSH2 0x257 JUMPI PUSH2 0x257 PUSH2 0xE2C JUMP JUMPDEST DUP2 PUSH1 0x20 ADD MLOAD PUSH1 0x2 DUP2 GT ISZERO PUSH2 0x26D JUMPI PUSH2 0x26D PUSH2 0xE2C JUMP JUMPDEST SUB PUSH2 0x3F7 JUMPI PUSH1 0x0 DUP1 JUMPDEST PUSH1 0x2 SLOAD DUP2 LT ISZERO PUSH2 0x2D6 JUMPI DUP3 PUSH1 0x0 ADD MLOAD PUSH1 0x1 PUSH1 0x1 PUSH1 0xA0 SHL SUB AND PUSH1 0x2 DUP3 DUP2 SLOAD DUP2 LT PUSH2 0x2A1 JUMPI PUSH2 0x2A1 PUSH2 0xF92 JUMP JUMPDEST PUSH1 0x0 SWAP2 DUP3 MSTORE PUSH1 0x20 SWAP1 SWAP2 KECCAK256 ADD SLOAD PUSH1 0x1 PUSH1 0x1 PUSH1 0xA0 SHL SUB AND SUB PUSH2 0x2C4 JUMPI PUSH1 0x1 SWAP2 POP PUSH2 0x2D6 JUMP JUMPDEST DUP1 PUSH2 0x2CE DUP2 PUSH2 0xFBE JUMP JUMPDEST SWAP2 POP POP PUSH2 0x276 JUMP JUMPDEST POP DUP1 PUSH2 0x32E JUMPI DUP2 MLOAD PUSH1 0x2 DUP1 SLOAD PUSH1 0x1 DUP2 ADD DUP3 SSTORE PUSH1 0x0 SWAP2 SWAP1 SWAP2 MSTORE PUSH32 0x405787FA12A823E0F2B7631CC41B3BA8828B3321CA811111FA75CD3AA3BB5ACE ADD DUP1 SLOAD PUSH1 0x1 PUSH1 0x1 PUSH1 0xA0 SHL SUB NOT AND PUSH1 0x1 PUSH1 0x1 PUSH1 0xA0 SHL SUB SWAP1 SWAP3 AND SWAP2 SWAP1 SWAP2 OR SWAP1 SSTORE JUMPDEST PUSH1 0x0 JUMPDEST DUP3 PUSH1 0x40 ADD MLOAD MLOAD DUP2 LT ISZERO PUSH2 0x3F0 JUMPI PUSH1 0x0 DUP4 PUSH1 0x40 ADD MLOAD DUP3 DUP2 MLOAD DUP2 LT PUSH2 0x356 JUMPI PUSH2 0x356 PUSH2 0xF92 JUMP JUMPDEST PUSH1 0x20 SWAP1 DUP2 MUL SWAP2 SWAP1 SWAP2 ADD DUP2 ADD MLOAD DUP6 MLOAD PUSH1 0x1 PUSH1 0x1 PUSH1 0xE0 SHL SUB NOT DUP3 AND PUSH1 0x0 SWAP1 DUP2 MSTORE PUSH1 0x1 DUP1 DUP6 MSTORE PUSH1 0x40 DUP1 DUP4 KECCAK256 DUP1 SLOAD PUSH1 0x1 PUSH1 0x1 PUSH1 0xA0 SHL SUB NOT AND PUSH1 0x1 PUSH1 0x1 PUSH1 0xA0 SHL SUB SWAP6 DUP7 AND OR SWAP1 SSTORE DUP10 MLOAD SWAP1 SWAP4 AND DUP3 MSTORE PUSH1 0x3 DUP6 MSTORE SWAP2 DUP2 KECCAK256 DUP1 SLOAD SWAP3 DUP4 ADD DUP2 SSTORE DUP2 MSTORE SWAP3 SWAP1 SWAP3 KECCAK256 PUSH1 0x8 DUP4 DIV ADD DUP1 SLOAD PUSH4 0xFFFFFFFF PUSH1 0x7 SWAP1 SWAP5 AND PUSH1 0x4 MUL PUSH2 0x100 EXP SWAP4 DUP5 MUL NOT AND PUSH1 0xE0 SWAP3 SWAP1 SWAP3 SHR SWAP3 SWAP1 SWAP3 MUL OR SWAP1 SSTORE POP DUP1 PUSH2 0x3E8 DUP2 PUSH2 0xFBE JUMP JUMPDEST SWAP2 POP POP PUSH2 0x331 JUMP JUMPDEST POP POP PUSH2 0x9FA JUMP JUMPDEST PUSH1 0x1 DUP2 PUSH1 0x20 ADD MLOAD PUSH1 0x2 DUP2 GT ISZERO PUSH2 0x40F JUMPI PUSH2 0x40F PUSH2 0xE2C JUMP JUMPDEST SUB PUSH2 0x790 JUMPI PUSH1 0x0 JUMPDEST DUP2 PUSH1 0x40 ADD MLOAD MLOAD DUP2 LT ISZERO PUSH2 0x78A JUMPI PUSH1 0x0 DUP3 PUSH1 0x40 ADD MLOAD DUP3 DUP2 MLOAD DUP2 LT PUSH2 0x43C JUMPI PUSH2 0x43C PUSH2 0xF92 JUMP JUMPDEST PUSH1 0x20 SWAP1 DUP2 MUL SWAP2 SWAP1 SWAP2 ADD DUP2 ADD MLOAD PUSH1 0x1 PUSH1 0x1 PUSH1 0xE0 SHL SUB NOT DUP2 AND PUSH1 0x0 SWAP1 DUP2 MSTORE PUSH1 0x1 SWAP1 SWAP3 MSTORE PUSH1 0x40 SWAP1 SWAP2 KECCAK256 SLOAD SWAP1 SWAP2 POP PUSH1 0x1 PUSH1 0x1 PUSH1 0xA0 SHL SUB AND DUP1 ISZERO PUSH2 0x63B JUMPI PUSH1 0x0 JUMPDEST PUSH1 0x1 PUSH1 0x1 PUSH1 0xA0 SHL SUB DUP3 AND PUSH1 0x0 SWAP1 DUP2 MSTORE PUSH1 0x3 PUSH1 0x20 MSTORE PUSH1 0x40 SWAP1 KECCAK256 SLOAD DUP2 LT ISZERO PUSH2 0x639 JUMPI PUSH1 0x1 PUSH1 0x1 PUSH1 0xA0 SHL SUB DUP3 AND PUSH1 0x0 SWAP1 DUP2 MSTORE PUSH1 0x3 PUSH1 0x20 MSTORE PUSH1 0x40 SWAP1 KECCAK256 DUP1 SLOAD PUSH1 0x1 PUSH1 0x1 PUSH1 0xE0 SHL SUB NOT DUP6 AND SWAP2 SWAP1 DUP4 SWAP1 DUP2 LT PUSH2 0x4CF JUMPI PUSH2 0x4CF PUSH2 0xF92 JUMP JUMPDEST SWAP1 PUSH1 0x0 MSTORE PUSH1 0x20 PUSH1 0x0 KECCAK256 SWAP1 PUSH1 0x8 SWAP2 DUP3 DUP3 DIV ADD SWAP2 SWAP1 MOD PUSH1 0x4 MUL SWAP1 SLOAD SWAP1 PUSH2 0x100 EXP SWAP1 DIV PUSH1 0xE0 SHL PUSH1 0x1 PUSH1 0x1 PUSH1 0xE0 SHL SUB NOT AND SUB PUSH2 0x627 JUMPI PUSH1 0x1 PUSH1 0x1 PUSH1 0xA0 SHL SUB DUP3 AND PUSH1 0x0 SWAP1 DUP2 MSTORE PUSH1 0x3 PUSH1 0x20 MSTORE PUSH1 0x40 SWAP1 KECCAK256 DUP1 SLOAD PUSH2 0x527 SWAP1 PUSH1 0x1 SWAP1 PUSH2 0xFD7 JUMP JUMPDEST DUP2 SLOAD DUP2 LT PUSH2 0x537 JUMPI PUSH2 0x537 PUSH2 0xF92 JUMP JUMPDEST SWAP1 PUSH1 0x0 MSTORE PUSH1 0x20 PUSH1 0x0 KECCAK256 SWAP1 PUSH1 0x8 SWAP2 DUP3 DUP3 DIV ADD SWAP2 SWAP1 MOD PUSH1 0x4 MUL SWAP1 SLOAD SWAP1 PUSH2 0x100 EXP SWAP1 DIV PUSH1 0xE0 SHL PUSH1 0x3 PUSH1 0x0 DUP5 PUSH1 0x1 PUSH1 0x1 PUSH1 0xA0 SHL SUB AND PUSH1 0x1 PUSH1 0x1 PUSH1 0xA0 SHL SUB AND DUP2 MSTORE PUSH1 0x20 ADD SWAP1 DUP2 MSTORE PUSH1 0x20 ADD PUSH1 0x0 KECCAK256 DUP3 DUP2 SLOAD DUP2 LT PUSH2 0x590 JUMPI PUSH2 0x590 PUSH2 0xF92 JUMP JUMPDEST SWAP1 PUSH1 0x0 MSTORE PUSH1 0x20 PUSH1 0x0 KECCAK256 SWAP1 PUSH1 0x8 SWAP2 DUP3 DUP3 DIV ADD SWAP2 SWAP1 MOD PUSH1 0x4 MUL PUSH2 0x100 EXP DUP2 SLOAD DUP2 PUSH4 0xFFFFFFFF MUL NOT AND SWAP1 DUP4 PUSH1 0xE0 SHR MUL OR SWAP1 SSTORE POP PUSH1 0x3 PUSH1 0x0 DUP4 PUSH1 0x1 PUSH1 0x1 PUSH1 0xA0 SHL SUB AND PUSH1 0x1 PUSH1 0x1 PUSH1 0xA0 SHL SUB AND DUP2 MSTORE PUSH1 0x20 ADD SWAP1 DUP2 MSTORE PUSH1 0x20 ADD PUSH1 0x0 KECCAK256 DUP1 SLOAD DUP1 PUSH2 0x5F4 JUMPI PUSH2 0x5F4 PUSH2 0xFF0 JUMP JUMPDEST PUSH1 0x0 DUP3 DUP2 MSTORE PUSH1 0x20 SWAP1 KECCAK256 PUSH1 0x8 PUSH1 0x0 NOT SWAP1 SWAP3 ADD SWAP2 DUP3 DIV ADD DUP1 SLOAD PUSH4 0xFFFFFFFF PUSH1 0x4 PUSH1 0x7 DUP6 AND MUL PUSH2 0x100 EXP MUL NOT AND SWAP1 SSTORE SWAP1 SSTORE PUSH2 0x639 JUMP JUMPDEST DUP1 PUSH2 0x631 DUP2 PUSH2 0xFBE JUMP JUMPDEST SWAP2 POP POP PUSH2 0x478 JUMP JUMPDEST POP JUMPDEST DUP4 MLOAD PUSH1 0x1 PUSH1 0x1 PUSH1 0xE0 SHL SUB NOT DUP4 AND PUSH1 0x0 SWAP1 DUP2 MSTORE PUSH1 0x1 PUSH1 0x20 DUP2 DUP2 MSTORE PUSH1 0x40 DUP1 DUP5 KECCAK256 DUP1 SLOAD PUSH1 0x1 PUSH1 0x1 PUSH1 0xA0 SHL SUB NOT AND PUSH1 0x1 PUSH1 0x1 PUSH1 0xA0 SHL SUB SWAP7 DUP8 AND OR SWAP1 SSTORE DUP9 MLOAD SWAP1 SWAP5 AND DUP4 MSTORE PUSH1 0x3 DUP2 MSTORE SWAP3 DUP3 KECCAK256 DUP1 SLOAD SWAP2 DUP3 ADD DUP2 SSTORE DUP3 MSTORE SWAP2 DUP2 KECCAK256 PUSH1 0x8 DUP4 DIV ADD DUP1 SLOAD PUSH4 0xFFFFFFFF PUSH1 0x7 SWAP1 SWAP5 AND PUSH1 0x4 MUL PUSH2 0x100 EXP SWAP4 DUP5 MUL NOT AND PUSH1 0xE0 DUP7 SWAP1 SHR SWAP4 SWAP1 SWAP4 MUL SWAP3 SWAP1 SWAP3 OR SWAP1 SWAP2 SSTORE DUP1 JUMPDEST PUSH1 0x2 SLOAD DUP2 LT ISZERO PUSH2 0x71C JUMPI DUP6 PUSH1 0x0 ADD MLOAD PUSH1 0x1 PUSH1 0x1 PUSH1 0xA0 SHL SUB AND PUSH1 0x2 DUP3 DUP2 SLOAD DUP2 LT PUSH2 0x6E7 JUMPI PUSH2 0x6E7 PUSH2 0xF92 JUMP JUMPDEST PUSH1 0x0 SWAP2 DUP3 MSTORE PUSH1 0x20 SWAP1 SWAP2 KECCAK256 ADD SLOAD PUSH1 0x1 PUSH1 0x1 PUSH1 0xA0 SHL SUB AND SUB PUSH2 0x70A JUMPI PUSH1 0x1 SWAP2 POP PUSH2 0x71C JUMP JUMPDEST DUP1 PUSH2 0x714 DUP2 PUSH2 0xFBE JUMP JUMPDEST SWAP2 POP POP PUSH2 0x6BC JUMP JUMPDEST POP DUP1 PUSH2 0x774 JUMPI DUP5 MLOAD PUSH1 0x2 DUP1 SLOAD PUSH1 0x1 DUP2 ADD DUP3 SSTORE PUSH1 0x0 SWAP2 SWAP1 SWAP2 MSTORE PUSH32 0x405787FA12A823E0F2B7631CC41B3BA8828B3321CA811111FA75CD3AA3BB5ACE ADD DUP1 SLOAD PUSH1 0x1 PUSH1 0x1 PUSH1 0xA0 SHL SUB NOT AND PUSH1 0x1 PUSH1 0x1 PUSH1 0xA0 SHL SUB SWAP1 SWAP3 AND SWAP2 SWAP1 SWAP2 OR SWAP1 SSTORE JUMPDEST POP POP POP DUP1 DUP1 PUSH2 0x782 SWAP1 PUSH2 0xFBE JUMP JUMPDEST SWAP2 POP POP PUSH2 0x417 JUMP JUMPDEST POP PUSH2 0x9FA JUMP JUMPDEST PUSH1 0x2 DUP2 PUSH1 0x20 ADD MLOAD PUSH1 0x2 DUP2 GT ISZERO PUSH2 0x7A8 JUMPI PUSH2 0x7A8 PUSH2 0xE2C JUMP JUMPDEST SUB PUSH2 0x9FA JUMPI PUSH1 0x0 JUMPDEST DUP2 PUSH1 0x40 ADD MLOAD MLOAD DUP2 LT ISZERO PUSH2 0x9F8 JUMPI PUSH1 0x0 DUP3 PUSH1 0x40 ADD MLOAD DUP3 DUP2 MLOAD DUP2 LT PUSH2 0x7D5 JUMPI PUSH2 0x7D5 PUSH2 0xF92 JUMP JUMPDEST PUSH1 0x20 SWAP1 DUP2 MUL SWAP2 SWAP1 SWAP2 ADD DUP2 ADD MLOAD PUSH1 0x1 PUSH1 0x1 PUSH1 0xE0 SHL SUB NOT DUP2 AND PUSH1 0x0 SWAP1 DUP2 MSTORE PUSH1 0x1 SWAP1 SWAP3 MSTORE PUSH1 0x40 SWAP1 SWAP2 KECCAK256 DUP1 SLOAD PUSH1 0x1 PUSH1 0x1 PUSH1 0xA0 SHL SUB NOT DUP2 AND SWAP1 SWAP2 SSTORE SWAP1 SWAP2 POP PUSH1 0x1 PUSH1 0x1 PUSH1 0xA0 SHL SUB AND DUP1 ISZERO PUSH2 0x9E3 JUMPI PUSH1 0x0 JUMPDEST PUSH1 0x1 PUSH1 0x1 PUSH1 0xA0 SHL SUB DUP3 AND PUSH1 0x0 SWAP1 DUP2 MSTORE PUSH1 0x3 PUSH1 0x20 MSTORE PUSH1 0x40 SWAP1 KECCAK256 SLOAD DUP2 LT ISZERO PUSH2 0x9E1 JUMPI PUSH1 0x1 PUSH1 0x1 PUSH1 0xA0 SHL SUB DUP3 AND PUSH1 0x0 SWAP1 DUP2 MSTORE PUSH1 0x3 PUSH1 0x20 MSTORE PUSH1 0x40 SWAP1 KECCAK256 DUP1 SLOAD PUSH1 0x1 PUSH1 0x1 PUSH1 0xE0 SHL SUB NOT DUP6 AND SWAP2 SWAP1 DUP4 SWAP1 DUP2 LT PUSH2 0x877 JUMPI PUSH2 0x877 PUSH2 0xF92 JUMP JUMPDEST SWAP1 PUSH1 0x0 MSTORE PUSH1 0x20 PUSH1 0x0 KECCAK256 SWAP1 PUSH1 0x8 SWAP2 DUP3 DUP3 DIV ADD SWAP2 SWAP1 MOD PUSH1 0x4 MUL SWAP1 SLOAD SWAP1 PUSH2 0x100 EXP SWAP1 DIV PUSH1 0xE0 SHL PUSH1 0x1 PUSH1 0x1 PUSH1 0xE0 SHL SUB NOT AND SUB PUSH2 0x9CF JUMPI PUSH1 0x1 PUSH1 0x1 PUSH1 0xA0 SHL SUB DUP3 AND PUSH1 0x0 SWAP1 DUP2 MSTORE PUSH1 0x3 PUSH1 0x20 MSTORE PUSH1 0x40 SWAP1 KECCAK256 DUP1 SLOAD PUSH2 0x8CF SWAP1 PUSH1 0x1 SWAP1 PUSH2 0xFD7 JUMP JUMPDEST DUP2 SLOAD DUP2 LT PUSH2 0x8DF JUMPI PUSH2 0x8DF PUSH2 0xF92 JUMP JUMPDEST SWAP1 PUSH1 0x0 MSTORE PUSH1 0x20 PUSH1 0x0 KECCAK256 SWAP1 PUSH1 0x8 SWAP2 DUP3 DUP3 DIV ADD SWAP2 SWAP1 MOD PUSH1 0x4 MUL SWAP1 SLOAD SWAP1 PUSH2 0x100 EXP SWAP1 DIV PUSH1 0xE0 SHL PUSH1 0x3 PUSH1 0x0 DUP5 PUSH1 0x1 PUSH1 0x1 PUSH1 0xA0 SHL SUB AND PUSH1 0x1 PUSH1 0x1 PUSH1 0xA0 SHL SUB AND DUP2 MSTORE PUSH1 0x20 ADD SWAP1 DUP2 MSTORE PUSH1 0x20 ADD PUSH1 0x0 KECCAK256 DUP3 DUP2 SLOAD DUP2 LT PUSH2 0x938 JUMPI PUSH2 0x938 PUSH2 0xF92 JUMP JUMPDEST SWAP1 PUSH1 0x0 MSTORE PUSH1 0x20 PUSH1 0x0 KECCAK256 SWAP1 PUSH1 0x8 SWAP2 DUP3 DUP3 DIV ADD SWAP2 SWAP1 MOD PUSH1 0x4 MUL PUSH2 0x100 EXP DUP2 SLOAD DUP2 PUSH4 0xFFFFFFFF MUL NOT AND SWAP1 DUP4 PUSH1 0xE0 SHR MUL OR SWAP1 SSTORE POP PUSH1 0x3 PUSH1 0x0 DUP4 PUSH1 0x1 PUSH1 0x1 PUSH1 0xA0 SHL SUB AND PUSH1 0x1 PUSH1 0x1 PUSH1 0xA0 SHL SUB AND DUP2 MSTORE PUSH1 0x20 ADD SWAP1 DUP2 MSTORE PUSH1 0x20 ADD PUSH1 0x0 KECCAK256 DUP1 SLOAD DUP1 PUSH2 0x99C JUMPI PUSH2 0x99C PUSH2 0xFF0 JUMP JUMPDEST PUSH1 0x0 DUP3 DUP2 MSTORE PUSH1 0x20 SWAP1 KECCAK256 PUSH1 0x8 PUSH1 0x0 NOT SWAP1 SWAP3 ADD SWAP2 DUP3 DIV ADD DUP1 SLOAD PUSH4 0xFFFFFFFF PUSH1 0x4 PUSH1 0x7 DUP6 AND MUL PUSH2 0x100 EXP MUL NOT AND SWAP1 SSTORE SWAP1 SSTORE PUSH2 0x9E1 JUMP JUMPDEST DUP1 PUSH2 0x9D9 DUP2 PUSH2 0xFBE JUMP JUMPDEST SWAP2 POP POP PUSH2 0x820 JUMP JUMPDEST POP JUMPDEST POP POP DUP1 DUP1 PUSH2 0x9F0 SWAP1 PUSH2 0xFBE JUMP JUMPDEST SWAP2 POP POP PUSH2 0x7B0 JUMP JUMPDEST POP JUMPDEST POP DUP1 PUSH2 0xA05 DUP2 PUSH2 0xFBE JUMP JUMPDEST SWAP2 POP POP PUSH2 0x21D JUMP JUMPDEST POP PUSH1 0x1 PUSH1 0x1 PUSH1 0xA0 SHL SUB DUP3 AND ISZERO DUP1 ISZERO SWAP1 PUSH2 0xA27 JUMPI POP PUSH1 0x0 DUP2 MLOAD GT JUMPDEST ISZERO PUSH2 0xAD9 JUMPI PUSH1 0x0 DUP3 PUSH1 0x1 PUSH1 0x1 PUSH1 0xA0 SHL SUB AND DUP3 PUSH1 0x40 MLOAD PUSH2 0xA46 SWAP2 SWAP1 PUSH2 0x1006 JUMP JUMPDEST PUSH1 0x0 PUSH1 0x40 MLOAD DUP1 DUP4 SUB DUP2 DUP6 GAS DELEGATECALL SWAP2 POP POP RETURNDATASIZE DUP1 PUSH1 0x0 DUP2 EQ PUSH2 0xA81 JUMPI PUSH1 0x40 MLOAD SWAP2 POP PUSH1 0x1F NOT PUSH1 0x3F RETURNDATASIZE ADD AND DUP3 ADD PUSH1 0x40 MSTORE RETURNDATASIZE DUP3 MSTORE RETURNDATASIZE PUSH1 0x0 PUSH1 0x20 DUP5 ADD RETURNDATACOPY PUSH2 0xA86 JUMP JUMPDEST PUSH1 0x60 SWAP2 POP JUMPDEST POP POP SWAP1 POP DUP1 PUSH2 0xAD7 JUMPI PUSH1 0x40 MLOAD PUSH3 0x461BCD PUSH1 0xE5 SHL DUP2 MSTORE PUSH1 0x20 PUSH1 0x4 DUP3 ADD MSTORE PUSH1 0x1D PUSH1 0x24 DUP3 ADD MSTORE PUSH32 0x4469616D6F6E643A20496E69742066756E6374696F6E206661696C6564000000 PUSH1 0x44 DUP3 ADD MSTORE PUSH1 0x64 ADD PUSH2 0xAB JUMP JUMPDEST POP JUMPDEST POP POP POP JUMP JUMPDEST PUSH1 0x20 DUP1 DUP3 MSTORE DUP3 MLOAD DUP3 DUP3 ADD DUP2 SWAP1 MSTORE PUSH1 0x0 SWAP2 SWAP1 DUP5 DUP3 ADD SWAP1 PUSH1 0x40 DUP6 ADD SWAP1 DUP5 JUMPDEST DUP2 DUP2 LT ISZERO PUSH2 0xB1F JUMPI DUP4 MLOAD PUSH1 0x1 PUSH1 0x1 PUSH1 0xA0 SHL SUB AND DUP4 MSTORE SWAP3 DUP5 ADD SWAP3 SWAP2 DUP5 ADD SWAP2 PUSH1 0x1 ADD PUSH2 0xAFA JUMP JUMPDEST POP SWAP1 SWAP7 SWAP6 POP POP POP POP POP POP JUMP JUMPDEST DUP1 CALLDATALOAD PUSH1 0x1 PUSH1 0x1 PUSH1 0xE0 SHL SUB NOT DUP2 AND DUP2 EQ PUSH2 0xB43 JUMPI PUSH1 0x0 DUP1 REVERT JUMPDEST SWAP2 SWAP1 POP JUMP JUMPDEST PUSH1 0x0 PUSH1 0x20 DUP3 DUP5 SUB SLT ISZERO PUSH2 0xB5A JUMPI PUSH1 0x0 DUP1 REVERT JUMPDEST PUSH2 0xB63 DUP3 PUSH2 0xB2B JUMP JUMPDEST SWAP4 SWAP3 POP POP POP JUMP JUMPDEST PUSH4 0x4E487B71 PUSH1 0xE0 SHL PUSH1 0x0 MSTORE PUSH1 0x41 PUSH1 0x4 MSTORE PUSH1 0x24 PUSH1 0x0 REVERT JUMPDEST PUSH1 0x40 MLOAD PUSH1 0x60 DUP2 ADD PUSH8 0xFFFFFFFFFFFFFFFF DUP2 GT DUP3 DUP3 LT OR ISZERO PUSH2 0xBA3 JUMPI PUSH2 0xBA3 PUSH2 0xB6A JUMP JUMPDEST PUSH1 0x40 MSTORE SWAP1 JUMP JUMPDEST PUSH1 0x40 MLOAD PUSH1 0x1F DUP3 ADD PUSH1 0x1F NOT AND DUP2 ADD PUSH8 0xFFFFFFFFFFFFFFFF DUP2 GT DUP3 DUP3 LT OR ISZERO PUSH2 0xBD2 JUMPI PUSH2 0xBD2 PUSH2 0xB6A JUMP JUMPDEST PUSH1 0x40 MSTORE SWAP2 SWAP1 POP JUMP JUMPDEST PUSH1 0x0 PUSH8 0xFFFFFFFFFFFFFFFF DUP3 GT ISZERO PUSH2 0xBF4 JUMPI PUSH2 0xBF4 PUSH2 0xB6A JUMP JUMPDEST POP PUSH1 0x5 SHL PUSH1 0x20 ADD SWAP1 JUMP JUMPDEST DUP1 CALLDATALOAD PUSH1 0x1 PUSH1 0x1 PUSH1 0xA0 SHL SUB DUP2 AND DUP2 EQ PUSH2 0xB43 JUMPI PUSH1 0x0 DUP1 REVERT JUMPDEST PUSH1 0x0 DUP3 PUSH1 0x1F DUP4 ADD SLT PUSH2 0xC26 JUMPI PUSH1 0x0 DUP1 REVERT JUMPDEST DUP2 CALLDATALOAD PUSH8 0xFFFFFFFFFFFFFFFF DUP2 GT ISZERO PUSH2 0xC40 JUMPI PUSH2 0xC40 PUSH2 0xB6A JUMP JUMPDEST PUSH2 0xC53 PUSH1 0x1F DUP3 ADD PUSH1 0x1F NOT AND PUSH1 0x20 ADD PUSH2 0xBA9 JUMP JUMPDEST DUP2 DUP2 MSTORE DUP5 PUSH1 0x20 DUP4 DUP7 ADD ADD GT ISZERO PUSH2 0xC68 JUMPI PUSH1 0x0 DUP1 REVERT JUMPDEST DUP2 PUSH1 0x20 DUP6 ADD PUSH1 0x20 DUP4 ADD CALLDATACOPY PUSH1 0x0 SWAP2 DUP2 ADD PUSH1 0x20 ADD SWAP2 SWAP1 SWAP2 MSTORE SWAP4 SWAP3 POP POP POP JUMP JUMPDEST PUSH1 0x0 DUP1 PUSH1 0x0 PUSH1 0x60 DUP5 DUP7 SUB SLT ISZERO PUSH2 0xC9A JUMPI PUSH1 0x0 DUP1 REVERT JUMPDEST PUSH8 0xFFFFFFFFFFFFFFFF DUP1 DUP6 CALLDATALOAD GT ISZERO PUSH2 0xCB1 JUMPI PUSH1 0x0 DUP1 REVERT JUMPDEST DUP5 CALLDATALOAD DUP6 ADD DUP7 PUSH1 0x1F DUP3 ADD SLT PUSH2 0xCC4 JUMPI PUSH1 0x0 DUP1 REVERT JUMPDEST PUSH2 0xCD6 PUSH2 0xCD1 DUP3 CALLDATALOAD PUSH2 0xBDA JUMP JUMPDEST PUSH2 0xBA9 JUMP JUMPDEST DUP2 CALLDATALOAD DUP1 DUP3 MSTORE PUSH1 0x20 DUP1 DUP4 ADD SWAP3 SWAP2 PUSH1 0x5 SHL DUP5 ADD ADD DUP10 DUP2 GT ISZERO PUSH2 0xCF5 JUMPI PUSH1 0x0 DUP1 REVERT JUMPDEST PUSH1 0x20 DUP5 ADD JUMPDEST DUP2 DUP2 LT ISZERO PUSH2 0xDED JUMPI DUP6 DUP2 CALLDATALOAD GT ISZERO PUSH2 0xD10 JUMPI PUSH1 0x0 DUP1 REVERT JUMPDEST DUP1 CALLDATALOAD DUP6 ADD PUSH1 0x60 DUP2 DUP14 SUB PUSH1 0x1F NOT ADD SLT ISZERO PUSH2 0xD28 JUMPI PUSH1 0x0 DUP1 REVERT JUMPDEST PUSH2 0xD30 PUSH2 0xB80 JUMP JUMPDEST PUSH2 0xD3C PUSH1 0x20 DUP4 ADD PUSH2 0xBFE JUMP JUMPDEST DUP2 MSTORE PUSH1 0x40 DUP3 ADD CALLDATALOAD PUSH1 0x3 DUP2 LT PUSH2 0xD50 JUMPI PUSH1 0x0 DUP1 REVERT JUMPDEST PUSH1 0x20 DUP3 ADD MSTORE PUSH1 0x60 DUP3 ADD CALLDATALOAD DUP9 DUP2 GT ISZERO PUSH2 0xD67 JUMPI PUSH1 0x0 DUP1 REVERT JUMPDEST DUP1 DUP4 ADD SWAP3 POP POP DUP13 PUSH1 0x3F DUP4 ADD SLT PUSH2 0xD7C JUMPI PUSH1 0x0 DUP1 REVERT JUMPDEST PUSH1 0x20 DUP3 ADD CALLDATALOAD PUSH2 0xD8D PUSH2 0xCD1 DUP3 PUSH2 0xBDA JUMP JUMPDEST DUP2 DUP2 MSTORE PUSH1 0x5 SWAP2 SWAP1 SWAP2 SHL DUP4 ADD PUSH1 0x40 ADD SWAP1 PUSH1 0x20 DUP2 ADD SWAP1 DUP16 DUP4 GT ISZERO PUSH2 0xDAE JUMPI PUSH1 0x0 DUP1 REVERT JUMPDEST PUSH1 0x40 DUP6 ADD SWAP5 POP JUMPDEST DUP3 DUP6 LT ISZERO PUSH2 0xDD7 JUMPI PUSH2 0xDC6 DUP6 PUSH2 0xB2B JUMP JUMPDEST DUP3 MSTORE PUSH1 0x20 SWAP5 DUP6 ADD SWAP5 SWAP1 SWAP2 ADD SWAP1 PUSH2 0xDB5 JUMP JUMPDEST PUSH1 0x40 DUP5 ADD MSTORE POP POP DUP6 MSTORE POP PUSH1 0x20 SWAP4 DUP5 ADD SWAP4 ADD PUSH2 0xCFA JUMP JUMPDEST POP POP DUP1 SWAP7 POP POP POP POP PUSH2 0xE01 PUSH1 0x20 DUP7 ADD PUSH2 0xBFE JUMP JUMPDEST SWAP3 POP PUSH1 0x40 DUP6 ADD CALLDATALOAD DUP2 DUP2 GT ISZERO PUSH2 0xE15 JUMPI PUSH1 0x0 DUP1 REVERT JUMPDEST PUSH2 0xE21 DUP8 DUP3 DUP9 ADD PUSH2 0xC15 JUMP JUMPDEST SWAP3 POP POP POP SWAP3 POP SWAP3 POP SWAP3 JUMP JUMPDEST PUSH4 0x4E487B71 PUSH1 0xE0 SHL PUSH1 0x0 MSTORE PUSH1 0x21 PUSH1 0x4 MSTORE PUSH1 0x24 PUSH1 0x0 REVERT JUMPDEST PUSH1 0x0 JUMPDEST DUP4 DUP2 LT ISZERO PUSH2 0xE5D JUMPI DUP2 DUP2 ADD MLOAD DUP4 DUP3 ADD MSTORE PUSH1 0x20 ADD PUSH2 0xE45 JUMP JUMPDEST POP POP PUSH1 0x0 SWAP2 ADD MSTORE JUMP JUMPDEST PUSH1 0x0 DUP2 MLOAD DUP1 DUP5 MSTORE PUSH2 0xE7E DUP2 PUSH1 0x20 DUP7 ADD PUSH1 0x20 DUP7 ADD PUSH2 0xE42 JUMP JUMPDEST PUSH1 0x1F ADD PUSH1 0x1F NOT AND SWAP3 SWAP1 SWAP3 ADD PUSH1 0x20 ADD SWAP3 SWAP2 POP POP JUMP JUMPDEST PUSH1 0x0 PUSH1 0x60 DUP1 DUP4 ADD DUP2 DUP5 MSTORE DUP1 DUP8 MLOAD DUP1 DUP4 MSTORE PUSH1 0x80 SWAP3 POP DUP3 DUP7 ADD SWAP2 POP DUP3 DUP2 PUSH1 0x5 SHL DUP8 ADD ADD PUSH1 0x20 DUP1 DUP12 ADD PUSH1 0x0 JUMPDEST DUP5 DUP2 LT ISZERO PUSH2 0xF62 JUMPI DUP10 DUP5 SUB PUSH1 0x7F NOT ADD DUP7 MSTORE DUP2 MLOAD DUP1 MLOAD PUSH1 0x1 PUSH1 0x1 PUSH1 0xA0 SHL SUB AND DUP6 MSTORE DUP4 DUP2 ADD MLOAD DUP10 DUP7 ADD SWAP1 PUSH1 0x3 DUP2 LT PUSH2 0xF01 JUMPI PUSH4 0x4E487B71 PUSH1 0xE0 SHL PUSH1 0x0 MSTORE PUSH1 0x21 PUSH1 0x4 MSTORE PUSH1 0x24 PUSH1 0x0 REVERT JUMPDEST DUP7 DUP7 ADD MSTORE PUSH1 0x40 SWAP2 DUP3 ADD MLOAD SWAP2 DUP7 ADD DUP11 SWAP1 MSTORE DUP2 MLOAD SWAP1 DUP2 SWAP1 MSTORE SWAP1 DUP5 ADD SWAP1 PUSH1 0x0 SWAP1 DUP10 DUP8 ADD SWAP1 JUMPDEST DUP1 DUP4 LT ISZERO PUSH2 0xF4D JUMPI DUP4 MLOAD PUSH1 0x1 PUSH1 0x1 PUSH1 0xE0 SHL SUB NOT AND DUP3 MSTORE SWAP3 DUP7 ADD SWAP3 PUSH1 0x1 SWAP3 SWAP1 SWAP3 ADD SWAP2 SWAP1 DUP7 ADD SWAP1 PUSH2 0xF23 JUMP JUMPDEST POP SWAP8 DUP6 ADD SWAP8 SWAP6 POP POP POP SWAP1 DUP3 ADD SWAP1 PUSH1 0x1 ADD PUSH2 0xEBB JUMP JUMPDEST POP POP PUSH1 0x1 PUSH1 0x1 PUSH1 0xA0 SHL SUB DUP11 AND SWAP1 DUP9 ADD MSTORE DUP7 DUP2 SUB PUSH1 0x40 DUP9 ADD MSTORE PUSH2 0xF84 DUP2 DUP10 PUSH2 0xE66 JUMP JUMPDEST SWAP11 SWAP10 POP POP POP POP POP POP POP POP POP POP JUMP JUMPDEST PUSH4 0x4E487B71 PUSH1 0xE0 SHL PUSH1 0x0 MSTORE PUSH1 0x32 PUSH1 0x4 MSTORE PUSH1 0x24 PUSH1 0x0 REVERT JUMPDEST PUSH4 0x4E487B71 PUSH1 0xE0 SHL PUSH1 0x0 MSTORE PUSH1 0x11 PUSH1 0x4 MSTORE PUSH1 0x24 PUSH1 0x0 REVERT JUMPDEST PUSH1 0x0 PUSH1 0x1 DUP3 ADD PUSH2 0xFD0 JUMPI PUSH2 0xFD0 PUSH2 0xFA8 JUMP JUMPDEST POP PUSH1 0x1 ADD SWAP1 JUMP JUMPDEST DUP2 DUP2 SUB DUP2 DUP2 GT ISZERO PUSH2 0xFEA JUMPI PUSH2 0xFEA PUSH2 0xFA8 JUMP JUMPDEST SWAP3 SWAP2 POP POP JUMP JUMPDEST PUSH4 0x4E487B71 PUSH1 0xE0 SHL PUSH1 0x0 MSTORE PUSH1 0x31 PUSH1 0x4 MSTORE PUSH1 0x24 PUSH1 0x0 REVERT JUMPDEST PUSH1 0x0 DUP3 MLOAD PUSH2 0x1018 DUP2 DUP5 PUSH1 0x20 DUP8 ADD PUSH2 0xE42 JUMP JUMPDEST SWAP2 SWAP1 SWAP2 ADD SWAP3 SWAP2 POP POP JUMP INVALID LOG2 PUSH5 0x6970667358 0x22 SLT KECCAK256 SWAP16 PUSH14 0x220202ECF00B3C17DAF55EDD26EA PUSH16 0x4B83DBCEB701BD5943439C87AB369C64 PUSH20 0x6F6C634300081100330000000000000000000000 "},"methodIdentifiers":{"getFacetAddresses()":"3bed2f49","getFacetForSelector(bytes4)":"68d49ba1","testDiamondCut((address,uint8,bytes4[])[],address,bytes)":"ac642c0f"}}}}}