{"test/mocks/contracts/MockDiamond.sol":{"MockDiamond":{"abi":[{"inputs":[{"internalType":"address","name":"_owner","type":"address"},{"internalType":"address","name":"_diamondCutFacet","type":"address"}],"stateMutability":"nonpayable","type":"constructor"},{"anonymous":false,"inputs":[{"components":[{"internalType":"address","name":"facetAddress","type":"address"},{"internalType":"enum IDiamondCut.FacetCutAction","name":"action","type":"uint8"},{"internalType":"bytes4[]","name":"functionSelectors","type":"bytes4[]"}],"indexed":false,"internalType":"struct IDiamondCut.FacetCut[]","name":"_diamondCut","type":"tuple[]"},{"indexed":false,"internalType":"address","name":"_init","type":"address"},{"indexed":false,"internalType":"bytes","name":"_calldata","type":"bytes"}],"name":"DiamondCut","type":"event"},{"stateMutability":"payable","type":"fallback"},{"inputs":[],"name":"getFacetAddresses","outputs":[{"internalType":"address[]","name":"","type":"address[]"}],"stateMutability":"view","type":"function"},{"inputs":[{"internalType":"bytes4","name":"_selector","type":"bytes4"}],"name":"getFacetForSelector","outputs":[{"internalType":"address","name":"","type":"address"}],"stateMutability":"view","type":"function"},{"inputs":[{"components":[{"internalType":"address","name":"facetAddress","type":"address"},{"internalType":"enum IDiamondCut.FacetCutAction","name":"action","type":"uint8"},{"internalType":"bytes4[]","name":"functionSelectors","type":"bytes4[]"}],"internalType":"struct IDiamondCut.FacetCut[]","name":"_diamondCut","type":"tuple[]"},{"internalType":"address","name":"_init","type":"address"},{"internalType":"bytes","name":"_calldata","type":"bytes"}],"name":"testDiamondCut","outputs":[],"stateMutability":"nonpayable","type":"function"},{"stateMutability":"payable","type":"receive"}],"evm":{"bytecode":{"linkReferences":{},"object":"60a0346101bb57601f61111838819003918201601f19168301916001600160401b038311848410176101c05780849260409485528339810103126101bb57610052602061004b836101d6565b92016101d6565b600080546001600160a01b03199081166001600160a01b0394851617825560808390526307e4c70760e21b825260016020527f04b67899e087d68fbcac935dea360d2b2615fd123c427fc4e811c29caaaa443980548216949093169384179092556002546801000000000000000093919290848110156101a7576001810180600255811015610193577f405787fa12a823e0f2b7631cc41b3ba8828b3321ca811111fa75cd3aa3bb5ace01805490911682179055815260036020526040812080549283101561017f576001830180825583101561016b5781602091631f931c1c9352208260031c019160e083549160051b1663ffffffff811b9283911b16911916179055604051610f2d90816101eb8239608051815050f35b634e487b7160e01b82526032600452602482fd5b634e487b7160e01b82526041600452602482fd5b634e487b7160e01b84526032600452602484fd5b634e487b7160e01b84526041600452602484fd5b600080fd5b634e487b7160e01b600052604160045260246000fd5b51906001600160a01b03821682036101bb5756fe6080604052600436101561001e575b361561001c5761001c61044f565b005b6000803560e01c9081633bed2f491461005d5750806368d49ba1146100545763ac642c0f0361000e5761004f6102d2565b61000e565b5061004f610144565b346100e357806003193601126100e357608060025480915260a090600283527f405787fa12a823e0f2b7631cc41b3ba8828b3321ca811111fa75cd3aa3bb5ace925b8181106100c4576100b3607f1984016101a1565b604051806100c0816100e6565b0390f35b83546001600160a01b031683526001938401936020909301920161009f565b80fd5b6020604081830192828152608051809452019160a09160005b82811061010d575050505090565b83516001600160a01b0316855293810193928101926001016100ff565b35906001600160e01b03198216820361013f57565b600080fd5b503461013f57602036600319011261013f5760043563ffffffff60e01b811680910361013f576000526001602052602060018060a01b0360406000205416604051908152f35b50634e487b7160e01b600052604160045260246000fd5b601f80199101166080016080811067ffffffffffffffff8211176101c457604052565b6101cc61018a565b604052565b6060810190811067ffffffffffffffff8211176101c457604052565b90601f8019910116810190811067ffffffffffffffff8211176101c457604052565b60209067ffffffffffffffff8111610229575b60051b0190565b61023161018a565b610222565b602435906001600160a01b038216820361013f57565b35906001600160a01b038216820361013f57565b60209067ffffffffffffffff811161027e575b601f01601f19160190565b61028661018a565b610273565b81601f8201121561013f578035906102a282610260565b926102b060405194856101ed565b8284526020838301011161013f57816000926020809301838601378301015290565b503461013f5760608060031936011261013f5767ffffffffffffffff9060043582811161013f573660238201121561013f578060040135906103138261020f565b926040610322815195866101ed565b8385526020938486019160249384600593841b8701019536871161013f57858101945b878610610377578a8a610356610236565b60443592831161013f5761037161001c93369060040161028b565b916108b9565b85358b811161013f57820183602319823603011261013f5784519061039b826101d1565b6103a689820161024c565b82526044908181013590600382101561013f578e918d850152606481013591821161013f57013660438201121561013f578b918a82013590806103e88361020f565b946103f58b5196876101ed565b8386528501928b1b8401019236841161013f57908e95939694929101905b86821061042e57505083945087820152815201950194610345565b9481929496939561043f829361012a565b81520191018d9492959391610413565b50600080356001600160e01b0319168152600160205260408120546001600160a01b0316801561049657818091368280378136915af43d82803e15610492573d90f35b3d90fd5b606460405162461bcd60e51b815260206004820152602060248201527f4469616d6f6e643a2046756e6374696f6e20646f6573206e6f742065786973746044820152fd5b600311156104e457565b634e487b7160e01b600052602160045260246000fd5b919082519283825260005b848110610526575050826000602080949584010152601f8019910116010190565b602081830181015184830182015201610505565b93929093606092838201848352865180915260809485840191868160051b860101966020809a01936000915b83831061059b5750505050505061058b90610598959683019060018060a01b03169052565b60408184039101526104fa565b90565b909192939498607f198882030183528951908681019060018060a01b0383511681528d83015160038110156104e457848f9493928592838201528a604080960151958201528451809452019201906000905b80821061060c5750505090806001929b01930193019194939290610566565b82516001600160e01b03191684528f949384019390920191600191909101906105ed565b50634e487b7160e01b600052601160045260246000fd5b6001906000198114610657570190565b61065f610630565b0190565b50634e487b7160e01b600052603260045260246000fd5b602091815181101561068f575b60051b010190565b610697610663565b610687565b91909180548310156106c0575b600052601c60206000208360031c019260021b1690565b6106c8610663565b6106a9565b6000198101919082116106dc57565b6106e4610630565b565b805480156107105760001901906106fd828261069c565b63ffffffff82549160031b1b1916905555565b634e487b7160e01b600052603160045260246000fd5b906107496106e492805490600160401b82101561076b575b60018201815561069c565b90919082549060031b9163ffffffff831b92839160e01c901b16911916179055565b61077361018a565b61073e565b6002548110156107b0575b60026000527f405787fa12a823e0f2b7631cc41b3ba8828b3321ca811111fa75cd3aa3bb5ace0190600090565b6107b8610663565b610783565b600254600160401b811015610830575b6001810180600255811015610823575b60026000527f405787fa12a823e0f2b7631cc41b3ba8828b3321ca811111fa75cd3aa3bb5ace0180546001600160a01b0319166001600160a01b03909216919091179055565b61082b610663565b6107dd565b61083861018a565b6107cd565b3d15610868573d9061084e82610260565b9161085c60405193846101ed565b82523d6000602084013e565b606090565b1561087457565b60405162461bcd60e51b815260206004820152601d60248201527f4469616d6f6e643a20496e69742066756e6374696f6e206661696c65640000006044820152606490fd5b929190926040937f8faa70878671ccd212d20771b795c50af8fd3ff6cf27f4bde57e5d4de0aeb6738551806108f08685878461053a565b0390a16000925b8251841015610ead5761090a848461067a565b519560208701805161091b816104da565b610924816104da565b610a915750600080600254905b818110610a2a575b505015610a11575b868101959360005b875180518210156109f757906109ed610976610968836109f29561067a565b516001600160e01b03191690565b8b516109be906001600160a01b03165b6001600160e01b03198316600090815260016020526040902080546001600160a01b0319166001600160a01b03909216919091179055565b8b516109e8906001600160a01b03165b6001600160a01b0316600090815260036020526040902090565b610726565b610647565b610949565b505094909550610a08919650610647565b929193946108f7565b8651610a25906001600160a01b03166107bd565b610941565b610a4b610a3682610778565b905460039190911b1c6001600160a01b031690565b8a51610a67906001600160a01b03165b6001600160a01b031690565b6001600160a01b0390911614610a8557610a8090610647565b610931565b50505060013880610939565b909593949196815191610aa3836104da565b610aac836104da565b6001928303610d1c5750908682016000825b610ad0575b50505050610a0890610647565b81518051821015610d165761096882610ae89261067a565b610b15610b088263ffffffff60e01b166000526001602052604060002090565b546001600160a01b031690565b6001600160a01b039190828116610bec575b508551919285929091610b5a91610b46906001600160a01b0316610986565b87516109e8906001600160a01b03166109ce565b60008093600254905b818610610b97575b5050610b7d92935015610b8357610647565b90610abe565b85516109ed906001600160a01b03166107bd565b9193610ba8610a3687939597610778565b89518490610bbe906001600160a01b0316610a5b565b911614610bd95750610bcf90610647565b9391869391610b63565b9492505050610b7d915082839238610b6b565b6001600160e01b03198216866000815b610c09575b505050610b27565b6001600160a01b038416600090815260036020526040902054811015610d115782610c6f610c62610c5584610c508960018060a01b03166000526003602052604060002090565b61069c565b90549060031b1c60e01b90565b6001600160e01b03191690565b14610c8357610c7d90610647565b81610bfc565b610d089250610d039150926109ce610b5a9594610749610ce3610c55610cbb8660018060a01b03166000526003602052604060002090565b6001600160a01b0387166000908152600360205260409020610cdd90546106cd565b9061069c565b6001600160a01b038516600090815260036020526040902090929061069c565b6106e6565b90388681610c01565b610c01565b50610ac3565b60029051610d29816104da565b610d32816104da565b14610d43575b5050610a0890610647565b86016000825b610d54575b50610d38565b81518051821015610ea75790610d6e61096882869461067a565b610d8e610b088263ffffffff60e01b166000526001602052604060002090565b90610dbf610daf8263ffffffff60e01b166000526001602052604060002090565b80546001600160a01b0319169055565b6001600160a01b038216610ddf575b5050610dd990610647565b90610d49565b6001600160e01b0319166000845b610df8575b50610dce565b610e18839495929360018060a01b03166000526003602052604060002090565b54811015610e9e5782610e47610c62610c5584610c508960018060a01b03166000526003602052604060002090565b14610e5f57610e5590610647565b8194939291610ded565b610e9691949250836109ce610d0392610749610ce3610c55610cbb610dd99a60018060a01b03166000526003602052604060002090565b903880610df2565b81949350610df2565b50610d4e565b939450929150506001600160a01b038216151580610eed575b610ece575050565b6000816106e49360208394519201905af4610ee761083d565b5061086d565b5080511515610ec656fea2646970667358221220be9024ee18f944c610e4492cf64fcdb543d01727536315312ead7506858baa9f64736f6c63430008110033","opcodes":"PUSH1 0xA0 CALLVALUE PUSH2 0x1BB JUMPI PUSH1 0x1F PUSH2 0x1118 CODESIZE DUP2 SWAP1 SUB SWAP2 DUP3 ADD PUSH1 0x1F NOT AND DUP4 ADD SWAP2 PUSH1 0x1 PUSH1 0x1 PUSH1 0x40 SHL SUB DUP4 GT DUP5 DUP5 LT OR PUSH2 0x1C0 JUMPI DUP1 DUP5 SWAP3 PUSH1 0x40 SWAP5 DUP6 MSTORE DUP4 CODECOPY DUP2 ADD SUB SLT PUSH2 0x1BB JUMPI PUSH2 0x52 PUSH1 0x20 PUSH2 0x4B DUP4 PUSH2 0x1D6 JUMP JUMPDEST SWAP3 ADD PUSH2 0x1D6 JUMP JUMPDEST PUSH1 0x0 DUP1 SLOAD PUSH1 0x1 PUSH1 0x1 PUSH1 0xA0 SHL SUB NOT SWAP1 DUP2 AND PUSH1 0x1 PUSH1 0x1 PUSH1 0xA0 SHL SUB SWAP5 DUP6 AND OR DUP3 SSTORE PUSH1 0x80 DUP4 SWAP1 MSTORE PUSH4 0x7E4C707 PUSH1 0xE2 SHL DUP3 MSTORE PUSH1 0x1 PUSH1 0x20 MSTORE PUSH32 0x4B67899E087D68FBCAC935DEA360D2B2615FD123C427FC4E811C29CAAAA4439 DUP1 SLOAD DUP3 AND SWAP5 SWAP1 SWAP4 AND SWAP4 DUP5 OR SWAP1 SWAP3 SSTORE PUSH1 0x2 SLOAD PUSH9 0x10000000000000000 SWAP4 SWAP2 SWAP3 SWAP1 DUP5 DUP2 LT ISZERO PUSH2 0x1A7 JUMPI PUSH1 0x1 DUP2 ADD DUP1 PUSH1 0x2 SSTORE DUP2 LT ISZERO PUSH2 0x193 JUMPI PUSH32 0x405787FA12A823E0F2B7631CC41B3BA8828B3321CA811111FA75CD3AA3BB5ACE ADD DUP1 SLOAD SWAP1 SWAP2 AND DUP3 OR SWAP1 SSTORE DUP2 MSTORE PUSH1 0x3 PUSH1 0x20 MSTORE PUSH1 0x40 DUP2 KECCAK256 DUP1 SLOAD SWAP3 DUP4 LT ISZERO PUSH2 0x17F JUMPI PUSH1 0x1 DUP4 ADD DUP1 DUP3 SSTORE DUP4 LT ISZERO PUSH2 0x16B JUMPI DUP2 PUSH1 0x20 SWAP2 PUSH4 0x1F931C1C SWAP4 MSTORE KECCAK256 DUP3 PUSH1 0x3 SHR ADD SWAP2 PUSH1 0xE0 DUP4 SLOAD SWAP2 PUSH1 0x5 SHL AND PUSH4 0xFFFFFFFF DUP2 SHL SWAP3 DUP4 SWAP2 SHL AND SWAP2 NOT AND OR SWAP1 SSTORE PUSH1 0x40 MLOAD PUSH2 0xF2D SWAP1 DUP2 PUSH2 0x1EB DUP3 CODECOPY PUSH1 0x80 MLOAD DUP2 POP POP RETURN JUMPDEST PUSH4 0x4E487B71 PUSH1 0xE0 SHL DUP3 MSTORE PUSH1 0x32 PUSH1 0x4 MSTORE PUSH1 0x24 DUP3 REVERT JUMPDEST PUSH4 0x4E487B71 PUSH1 0xE0 SHL DUP3 MSTORE PUSH1 0x41 PUSH1 0x4 MSTORE PUSH1 0x24 DUP3 REVERT JUMPDEST PUSH4 0x4E487B71 PUSH1 0xE0 SHL DUP5 MSTORE PUSH1 0x32 PUSH1 0x4 MSTORE PUSH1 0x24 DUP5 REVERT JUMPDEST PUSH4 0x4E487B71 PUSH1 0xE0 SHL DUP5 MSTORE PUSH1 0x41 PUSH1 0x4 MSTORE PUSH1 0x24 DUP5 REVERT JUMPDEST PUSH1 0x0 DUP1 REVERT JUMPDEST PUSH4 0x4E487B71 PUSH1 0xE0 SHL PUSH1 0x0 MSTORE PUSH1 0x41 PUSH1 0x4 MSTORE PUSH1 0x24 PUSH1 0x0 REVERT JUMPDEST MLOAD SWAP1 PUSH1 0x1 PUSH1 0x1 PUSH1 0xA0 SHL SUB DUP3 AND DUP3 SUB PUSH2 0x1BB JUMPI JUMP INVALID PUSH1 0x80 PUSH1 0x40 MSTORE PUSH1 0x4 CALLDATASIZE LT ISZERO PUSH2 0x1E JUMPI JUMPDEST CALLDATASIZE ISZERO PUSH2 0x1C JUMPI PUSH2 0x1C PUSH2 0x44F JUMP JUMPDEST STOP JUMPDEST PUSH1 0x0 DUP1 CALLDATALOAD PUSH1 0xE0 SHR SWAP1 DUP2 PUSH4 0x3BED2F49 EQ PUSH2 0x5D JUMPI POP DUP1 PUSH4 0x68D49BA1 EQ PUSH2 0x54 JUMPI PUSH4 0xAC642C0F SUB PUSH2 0xE JUMPI PUSH2 0x4F PUSH2 0x2D2 JUMP JUMPDEST PUSH2 0xE JUMP JUMPDEST POP PUSH2 0x4F PUSH2 0x144 JUMP JUMPDEST CALLVALUE PUSH2 0xE3 JUMPI DUP1 PUSH1 0x3 NOT CALLDATASIZE ADD SLT PUSH2 0xE3 JUMPI PUSH1 0x80 PUSH1 0x2 SLOAD DUP1 SWAP2 MSTORE PUSH1 0xA0 SWAP1 PUSH1 0x2 DUP4 MSTORE PUSH32 0x405787FA12A823E0F2B7631CC41B3BA8828B3321CA811111FA75CD3AA3BB5ACE SWAP3 JUMPDEST DUP2 DUP2 LT PUSH2 0xC4 JUMPI PUSH2 0xB3 PUSH1 0x7F NOT DUP5 ADD PUSH2 0x1A1 JUMP JUMPDEST PUSH1 0x40 MLOAD DUP1 PUSH2 0xC0 DUP2 PUSH2 0xE6 JUMP JUMPDEST SUB SWAP1 RETURN JUMPDEST DUP4 SLOAD PUSH1 0x1 PUSH1 0x1 PUSH1 0xA0 SHL SUB AND DUP4 MSTORE PUSH1 0x1 SWAP4 DUP5 ADD SWAP4 PUSH1 0x20 SWAP1 SWAP4 ADD SWAP3 ADD PUSH2 0x9F JUMP JUMPDEST DUP1 REVERT JUMPDEST PUSH1 0x20 PUSH1 0x40 DUP2 DUP4 ADD SWAP3 DUP3 DUP2 MSTORE PUSH1 0x80 MLOAD DUP1 SWAP5 MSTORE ADD SWAP2 PUSH1 0xA0 SWAP2 PUSH1 0x0 JUMPDEST DUP3 DUP2 LT PUSH2 0x10D JUMPI POP POP POP POP SWAP1 JUMP JUMPDEST DUP4 MLOAD PUSH1 0x1 PUSH1 0x1 PUSH1 0xA0 SHL SUB AND DUP6 MSTORE SWAP4 DUP2 ADD SWAP4 SWAP3 DUP2 ADD SWAP3 PUSH1 0x1 ADD PUSH2 0xFF JUMP JUMPDEST CALLDATALOAD SWAP1 PUSH1 0x1 PUSH1 0x1 PUSH1 0xE0 SHL SUB NOT DUP3 AND DUP3 SUB PUSH2 0x13F JUMPI JUMP JUMPDEST PUSH1 0x0 DUP1 REVERT JUMPDEST POP CALLVALUE PUSH2 0x13F JUMPI PUSH1 0x20 CALLDATASIZE PUSH1 0x3 NOT ADD SLT PUSH2 0x13F JUMPI PUSH1 0x4 CALLDATALOAD PUSH4 0xFFFFFFFF PUSH1 0xE0 SHL DUP2 AND DUP1 SWAP2 SUB PUSH2 0x13F JUMPI PUSH1 0x0 MSTORE PUSH1 0x1 PUSH1 0x20 MSTORE PUSH1 0x20 PUSH1 0x1 DUP1 PUSH1 0xA0 SHL SUB PUSH1 0x40 PUSH1 0x0 KECCAK256 SLOAD AND PUSH1 0x40 MLOAD SWAP1 DUP2 MSTORE RETURN JUMPDEST POP PUSH4 0x4E487B71 PUSH1 0xE0 SHL PUSH1 0x0 MSTORE PUSH1 0x41 PUSH1 0x4 MSTORE PUSH1 0x24 PUSH1 0x0 REVERT JUMPDEST PUSH1 0x1F DUP1 NOT SWAP2 ADD AND PUSH1 0x80 ADD PUSH1 0x80 DUP2 LT PUSH8 0xFFFFFFFFFFFFFFFF DUP3 GT OR PUSH2 0x1C4 JUMPI PUSH1 0x40 MSTORE JUMP JUMPDEST PUSH2 0x1CC PUSH2 0x18A JUMP JUMPDEST PUSH1 0x40 MSTORE JUMP JUMPDEST PUSH1 0x60 DUP2 ADD SWAP1 DUP2 LT PUSH8 0xFFFFFFFFFFFFFFFF DUP3 GT OR PUSH2 0x1C4 JUMPI PUSH1 0x40 MSTORE JUMP JUMPDEST SWAP1 PUSH1 0x1F DUP1 NOT SWAP2 ADD AND DUP2 ADD SWAP1 DUP2 LT PUSH8 0xFFFFFFFFFFFFFFFF DUP3 GT OR PUSH2 0x1C4 JUMPI PUSH1 0x40 MSTORE JUMP JUMPDEST PUSH1 0x20 SWAP1 PUSH8 0xFFFFFFFFFFFFFFFF DUP2 GT PUSH2 0x229 JUMPI JUMPDEST PUSH1 0x5 SHL ADD SWAP1 JUMP JUMPDEST PUSH2 0x231 PUSH2 0x18A JUMP JUMPDEST PUSH2 0x222 JUMP JUMPDEST PUSH1 0x24 CALLDATALOAD SWAP1 PUSH1 0x1 PUSH1 0x1 PUSH1 0xA0 SHL SUB DUP3 AND DUP3 SUB PUSH2 0x13F JUMPI JUMP JUMPDEST CALLDATALOAD SWAP1 PUSH1 0x1 PUSH1 0x1 PUSH1 0xA0 SHL SUB DUP3 AND DUP3 SUB PUSH2 0x13F JUMPI JUMP JUMPDEST PUSH1 0x20 SWAP1 PUSH8 0xFFFFFFFFFFFFFFFF DUP2 GT PUSH2 0x27E JUMPI JUMPDEST PUSH1 0x1F ADD PUSH1 0x1F NOT AND ADD SWAP1 JUMP JUMPDEST PUSH2 0x286 PUSH2 0x18A JUMP JUMPDEST PUSH2 0x273 JUMP JUMPDEST DUP2 PUSH1 0x1F DUP3 ADD SLT ISZERO PUSH2 0x13F JUMPI DUP1 CALLDATALOAD SWAP1 PUSH2 0x2A2 DUP3 PUSH2 0x260 JUMP JUMPDEST SWAP3 PUSH2 0x2B0 PUSH1 0x40 MLOAD SWAP5 DUP6 PUSH2 0x1ED JUMP JUMPDEST DUP3 DUP5 MSTORE PUSH1 0x20 DUP4 DUP4 ADD ADD GT PUSH2 0x13F JUMPI DUP2 PUSH1 0x0 SWAP3 PUSH1 0x20 DUP1 SWAP4 ADD DUP4 DUP7 ADD CALLDATACOPY DUP4 ADD ADD MSTORE SWAP1 JUMP JUMPDEST POP CALLVALUE PUSH2 0x13F JUMPI PUSH1 0x60 DUP1 PUSH1 0x3 NOT CALLDATASIZE ADD SLT PUSH2 0x13F JUMPI PUSH8 0xFFFFFFFFFFFFFFFF SWAP1 PUSH1 0x4 CALLDATALOAD DUP3 DUP2 GT PUSH2 0x13F JUMPI CALLDATASIZE PUSH1 0x23 DUP3 ADD SLT ISZERO PUSH2 0x13F JUMPI DUP1 PUSH1 0x4 ADD CALLDATALOAD SWAP1 PUSH2 0x313 DUP3 PUSH2 0x20F JUMP JUMPDEST SWAP3 PUSH1 0x40 PUSH2 0x322 DUP2 MLOAD SWAP6 DUP7 PUSH2 0x1ED JUMP JUMPDEST DUP4 DUP6 MSTORE PUSH1 0x20 SWAP4 DUP5 DUP7 ADD SWAP2 PUSH1 0x24 SWAP4 DUP5 PUSH1 0x5 SWAP4 DUP5 SHL DUP8 ADD ADD SWAP6 CALLDATASIZE DUP8 GT PUSH2 0x13F JUMPI DUP6 DUP2 ADD SWAP5 JUMPDEST DUP8 DUP7 LT PUSH2 0x377 JUMPI DUP11 DUP11 PUSH2 0x356 PUSH2 0x236 JUMP JUMPDEST PUSH1 0x44 CALLDATALOAD SWAP3 DUP4 GT PUSH2 0x13F JUMPI PUSH2 0x371 PUSH2 0x1C SWAP4 CALLDATASIZE SWAP1 PUSH1 0x4 ADD PUSH2 0x28B JUMP JUMPDEST SWAP2 PUSH2 0x8B9 JUMP JUMPDEST DUP6 CALLDATALOAD DUP12 DUP2 GT PUSH2 0x13F JUMPI DUP3 ADD DUP4 PUSH1 0x23 NOT DUP3 CALLDATASIZE SUB ADD SLT PUSH2 0x13F JUMPI DUP5 MLOAD SWAP1 PUSH2 0x39B DUP3 PUSH2 0x1D1 JUMP JUMPDEST PUSH2 0x3A6 DUP10 DUP3 ADD PUSH2 0x24C JUMP JUMPDEST DUP3 MSTORE PUSH1 0x44 SWAP1 DUP2 DUP2 ADD CALLDATALOAD SWAP1 PUSH1 0x3 DUP3 LT ISZERO PUSH2 0x13F JUMPI DUP15 SWAP2 DUP14 DUP6 ADD MSTORE PUSH1 0x64 DUP2 ADD CALLDATALOAD SWAP2 DUP3 GT PUSH2 0x13F JUMPI ADD CALLDATASIZE PUSH1 0x43 DUP3 ADD SLT ISZERO PUSH2 0x13F JUMPI DUP12 SWAP2 DUP11 DUP3 ADD CALLDATALOAD SWAP1 DUP1 PUSH2 0x3E8 DUP4 PUSH2 0x20F JUMP JUMPDEST SWAP5 PUSH2 0x3F5 DUP12 MLOAD SWAP7 DUP8 PUSH2 0x1ED JUMP JUMPDEST DUP4 DUP7 MSTORE DUP6 ADD SWAP3 DUP12 SHL DUP5 ADD ADD SWAP3 CALLDATASIZE DUP5 GT PUSH2 0x13F JUMPI SWAP1 DUP15 SWAP6 SWAP4 SWAP7 SWAP5 SWAP3 SWAP2 ADD SWAP1 JUMPDEST DUP7 DUP3 LT PUSH2 0x42E JUMPI POP POP DUP4 SWAP5 POP DUP8 DUP3 ADD MSTORE DUP2 MSTORE ADD SWAP6 ADD SWAP5 PUSH2 0x345 JUMP JUMPDEST SWAP5 DUP2 SWAP3 SWAP5 SWAP7 SWAP4 SWAP6 PUSH2 0x43F DUP3 SWAP4 PUSH2 0x12A JUMP JUMPDEST DUP2 MSTORE ADD SWAP2 ADD DUP14 SWAP5 SWAP3 SWAP6 SWAP4 SWAP2 PUSH2 0x413 JUMP JUMPDEST POP PUSH1 0x0 DUP1 CALLDATALOAD PUSH1 0x1 PUSH1 0x1 PUSH1 0xE0 SHL SUB NOT AND DUP2 MSTORE PUSH1 0x1 PUSH1 0x20 MSTORE PUSH1 0x40 DUP2 KECCAK256 SLOAD PUSH1 0x1 PUSH1 0x1 PUSH1 0xA0 SHL SUB AND DUP1 ISZERO PUSH2 0x496 JUMPI DUP2 DUP1 SWAP2 CALLDATASIZE DUP3 DUP1 CALLDATACOPY DUP2 CALLDATASIZE SWAP2 GAS DELEGATECALL RETURNDATASIZE DUP3 DUP1 RETURNDATACOPY ISZERO PUSH2 0x492 JUMPI RETURNDATASIZE SWAP1 RETURN JUMPDEST RETURNDATASIZE SWAP1 REVERT JUMPDEST PUSH1 0x64 PUSH1 0x40 MLOAD PUSH3 0x461BCD PUSH1 0xE5 SHL DUP2 MSTORE PUSH1 0x20 PUSH1 0x4 DUP3 ADD MSTORE PUSH1 0x20 PUSH1 0x24 DUP3 ADD MSTORE PUSH32 0x4469616D6F6E643A2046756E6374696F6E20646F6573206E6F74206578697374 PUSH1 0x44 DUP3 ADD MSTORE REVERT JUMPDEST PUSH1 0x3 GT ISZERO PUSH2 0x4E4 JUMPI JUMP JUMPDEST PUSH4 0x4E487B71 PUSH1 0xE0 SHL PUSH1 0x0 MSTORE PUSH1 0x21 PUSH1 0x4 MSTORE PUSH1 0x24 PUSH1 0x0 REVERT JUMPDEST SWAP2 SWAP1 DUP3 MLOAD SWAP3 DUP4 DUP3 MSTORE PUSH1 0x0 JUMPDEST DUP5 DUP2 LT PUSH2 0x526 JUMPI POP POP DUP3 PUSH1 0x0 PUSH1 0x20 DUP1 SWAP5 SWAP6 DUP5 ADD ADD MSTORE PUSH1 0x1F DUP1 NOT SWAP2 ADD AND ADD ADD SWAP1 JUMP JUMPDEST PUSH1 0x20 DUP2 DUP4 ADD DUP2 ADD MLOAD DUP5 DUP4 ADD DUP3 ADD MSTORE ADD PUSH2 0x505 JUMP JUMPDEST SWAP4 SWAP3 SWAP1 SWAP4 PUSH1 0x60 SWAP3 DUP4 DUP3 ADD DUP5 DUP4 MSTORE DUP7 MLOAD DUP1 SWAP2 MSTORE PUSH1 0x80 SWAP5 DUP6 DUP5 ADD SWAP2 DUP7 DUP2 PUSH1 0x5 SHL DUP7 ADD ADD SWAP7 PUSH1 0x20 DUP1 SWAP11 ADD SWAP4 PUSH1 0x0 SWAP2 JUMPDEST DUP4 DUP4 LT PUSH2 0x59B JUMPI POP POP POP POP POP POP PUSH2 0x58B SWAP1 PUSH2 0x598 SWAP6 SWAP7 DUP4 ADD SWAP1 PUSH1 0x1 DUP1 PUSH1 0xA0 SHL SUB AND SWAP1 MSTORE JUMP JUMPDEST PUSH1 0x40 DUP2 DUP5 SUB SWAP2 ADD MSTORE PUSH2 0x4FA JUMP JUMPDEST SWAP1 JUMP JUMPDEST SWAP1 SWAP2 SWAP3 SWAP4 SWAP5 SWAP9 PUSH1 0x7F NOT DUP9 DUP3 SUB ADD DUP4 MSTORE DUP10 MLOAD SWAP1 DUP7 DUP2 ADD SWAP1 PUSH1 0x1 DUP1 PUSH1 0xA0 SHL SUB DUP4 MLOAD AND DUP2 MSTORE DUP14 DUP4 ADD MLOAD PUSH1 0x3 DUP2 LT ISZERO PUSH2 0x4E4 JUMPI DUP5 DUP16 SWAP5 SWAP4 SWAP3 DUP6 SWAP3 DUP4 DUP3 ADD MSTORE DUP11 PUSH1 0x40 DUP1 SWAP7 ADD MLOAD SWAP6 DUP3 ADD MSTORE DUP5 MLOAD DUP1 SWAP5 MSTORE ADD SWAP3 ADD SWAP1 PUSH1 0x0 SWAP1 JUMPDEST DUP1 DUP3 LT PUSH2 0x60C JUMPI POP POP POP SWAP1 DUP1 PUSH1 0x1 SWAP3 SWAP12 ADD SWAP4 ADD SWAP4 ADD SWAP2 SWAP5 SWAP4 SWAP3 SWAP1 PUSH2 0x566 JUMP JUMPDEST DUP3 MLOAD PUSH1 0x1 PUSH1 0x1 PUSH1 0xE0 SHL SUB NOT AND DUP5 MSTORE DUP16 SWAP5 SWAP4 DUP5 ADD SWAP4 SWAP1 SWAP3 ADD SWAP2 PUSH1 0x1 SWAP2 SWAP1 SWAP2 ADD SWAP1 PUSH2 0x5ED JUMP JUMPDEST POP PUSH4 0x4E487B71 PUSH1 0xE0 SHL PUSH1 0x0 MSTORE PUSH1 0x11 PUSH1 0x4 MSTORE PUSH1 0x24 PUSH1 0x0 REVERT JUMPDEST PUSH1 0x1 SWAP1 PUSH1 0x0 NOT DUP2 EQ PUSH2 0x657 JUMPI ADD SWAP1 JUMP JUMPDEST PUSH2 0x65F PUSH2 0x630 JUMP JUMPDEST ADD SWAP1 JUMP JUMPDEST POP PUSH4 0x4E487B71 PUSH1 0xE0 SHL PUSH1 0x0 MSTORE PUSH1 0x32 PUSH1 0x4 MSTORE PUSH1 0x24 PUSH1 0x0 REVERT JUMPDEST PUSH1 0x20 SWAP2 DUP2 MLOAD DUP2 LT ISZERO PUSH2 0x68F JUMPI JUMPDEST PUSH1 0x5 SHL ADD ADD SWAP1 JUMP JUMPDEST PUSH2 0x697 PUSH2 0x663 JUMP JUMPDEST PUSH2 0x687 JUMP JUMPDEST SWAP2 SWAP1 SWAP2 DUP1 SLOAD DUP4 LT ISZERO PUSH2 0x6C0 JUMPI JUMPDEST PUSH1 0x0 MSTORE PUSH1 0x1C PUSH1 0x20 PUSH1 0x0 KECCAK256 DUP4 PUSH1 0x3 SHR ADD SWAP3 PUSH1 0x2 SHL AND SWAP1 JUMP JUMPDEST PUSH2 0x6C8 PUSH2 0x663 JUMP JUMPDEST PUSH2 0x6A9 JUMP JUMPDEST PUSH1 0x0 NOT DUP2 ADD SWAP2 SWAP1 DUP3 GT PUSH2 0x6DC JUMPI JUMP JUMPDEST PUSH2 0x6E4 PUSH2 0x630 JUMP JUMPDEST JUMP JUMPDEST DUP1 SLOAD DUP1 ISZERO PUSH2 0x710 JUMPI PUSH1 0x0 NOT ADD SWAP1 PUSH2 0x6FD DUP3 DUP3 PUSH2 0x69C JUMP JUMPDEST PUSH4 0xFFFFFFFF DUP3 SLOAD SWAP2 PUSH1 0x3 SHL SHL NOT AND SWAP1 SSTORE SSTORE JUMP JUMPDEST PUSH4 0x4E487B71 PUSH1 0xE0 SHL PUSH1 0x0 MSTORE PUSH1 0x31 PUSH1 0x4 MSTORE PUSH1 0x24 PUSH1 0x0 REVERT JUMPDEST SWAP1 PUSH2 0x749 PUSH2 0x6E4 SWAP3 DUP1 SLOAD SWAP1 PUSH1 0x1 PUSH1 0x40 SHL DUP3 LT ISZERO PUSH2 0x76B JUMPI JUMPDEST PUSH1 0x1 DUP3 ADD DUP2 SSTORE PUSH2 0x69C JUMP JUMPDEST SWAP1 SWAP2 SWAP1 DUP3 SLOAD SWAP1 PUSH1 0x3 SHL SWAP2 PUSH4 0xFFFFFFFF DUP4 SHL SWAP3 DUP4 SWAP2 PUSH1 0xE0 SHR SWAP1 SHL AND SWAP2 NOT AND OR SWAP1 SSTORE JUMP JUMPDEST PUSH2 0x773 PUSH2 0x18A JUMP JUMPDEST PUSH2 0x73E JUMP JUMPDEST PUSH1 0x2 SLOAD DUP2 LT ISZERO PUSH2 0x7B0 JUMPI JUMPDEST PUSH1 0x2 PUSH1 0x0 MSTORE PUSH32 0x405787FA12A823E0F2B7631CC41B3BA8828B3321CA811111FA75CD3AA3BB5ACE ADD SWAP1 PUSH1 0x0 SWAP1 JUMP JUMPDEST PUSH2 0x7B8 PUSH2 0x663 JUMP JUMPDEST PUSH2 0x783 JUMP JUMPDEST PUSH1 0x2 SLOAD PUSH1 0x1 PUSH1 0x40 SHL DUP2 LT ISZERO PUSH2 0x830 JUMPI JUMPDEST PUSH1 0x1 DUP2 ADD DUP1 PUSH1 0x2 SSTORE DUP2 LT ISZERO PUSH2 0x823 JUMPI JUMPDEST PUSH1 0x2 PUSH1 0x0 MSTORE PUSH32 0x405787FA12A823E0F2B7631CC41B3BA8828B3321CA811111FA75CD3AA3BB5ACE ADD DUP1 SLOAD PUSH1 0x1 PUSH1 0x1 PUSH1 0xA0 SHL SUB NOT AND PUSH1 0x1 PUSH1 0x1 PUSH1 0xA0 SHL SUB SWAP1 SWAP3 AND SWAP2 SWAP1 SWAP2 OR SWAP1 SSTORE JUMP JUMPDEST PUSH2 0x82B PUSH2 0x663 JUMP JUMPDEST PUSH2 0x7DD JUMP JUMPDEST PUSH2 0x838 PUSH2 0x18A JUMP JUMPDEST PUSH2 0x7CD JUMP JUMPDEST RETURNDATASIZE ISZERO PUSH2 0x868 JUMPI RETURNDATASIZE SWAP1 PUSH2 0x84E DUP3 PUSH2 0x260 JUMP JUMPDEST SWAP2 PUSH2 0x85C PUSH1 0x40 MLOAD SWAP4 DUP5 PUSH2 0x1ED JUMP JUMPDEST DUP3 MSTORE RETURNDATASIZE PUSH1 0x0 PUSH1 0x20 DUP5 ADD RETURNDATACOPY JUMP JUMPDEST PUSH1 0x60 SWAP1 JUMP JUMPDEST ISZERO PUSH2 0x874 JUMPI JUMP JUMPDEST PUSH1 0x40 MLOAD PUSH3 0x461BCD PUSH1 0xE5 SHL DUP2 MSTORE PUSH1 0x20 PUSH1 0x4 DUP3 ADD MSTORE PUSH1 0x1D PUSH1 0x24 DUP3 ADD MSTORE PUSH32 0x4469616D6F6E643A20496E69742066756E6374696F6E206661696C6564000000 PUSH1 0x44 DUP3 ADD MSTORE PUSH1 0x64 SWAP1 REVERT JUMPDEST SWAP3 SWAP2 SWAP1 SWAP3 PUSH1 0x40 SWAP4 PUSH32 0x8FAA70878671CCD212D20771B795C50AF8FD3FF6CF27F4BDE57E5D4DE0AEB673 DUP6 MLOAD DUP1 PUSH2 0x8F0 DUP7 DUP6 DUP8 DUP5 PUSH2 0x53A JUMP JUMPDEST SUB SWAP1 LOG1 PUSH1 0x0 SWAP3 JUMPDEST DUP3 MLOAD DUP5 LT ISZERO PUSH2 0xEAD JUMPI PUSH2 0x90A DUP5 DUP5 PUSH2 0x67A JUMP JUMPDEST MLOAD SWAP6 PUSH1 0x20 DUP8 ADD DUP1 MLOAD PUSH2 0x91B DUP2 PUSH2 0x4DA JUMP JUMPDEST PUSH2 0x924 DUP2 PUSH2 0x4DA JUMP JUMPDEST PUSH2 0xA91 JUMPI POP PUSH1 0x0 DUP1 PUSH1 0x2 SLOAD SWAP1 JUMPDEST DUP2 DUP2 LT PUSH2 0xA2A JUMPI JUMPDEST POP POP ISZERO PUSH2 0xA11 JUMPI JUMPDEST DUP7 DUP2 ADD SWAP6 SWAP4 PUSH1 0x0 JUMPDEST DUP8 MLOAD DUP1 MLOAD DUP3 LT ISZERO PUSH2 0x9F7 JUMPI SWAP1 PUSH2 0x9ED PUSH2 0x976 PUSH2 0x968 DUP4 PUSH2 0x9F2 SWAP6 PUSH2 0x67A JUMP JUMPDEST MLOAD PUSH1 0x1 PUSH1 0x1 PUSH1 0xE0 SHL SUB NOT AND SWAP1 JUMP JUMPDEST DUP12 MLOAD PUSH2 0x9BE SWAP1 PUSH1 0x1 PUSH1 0x1 PUSH1 0xA0 SHL SUB AND JUMPDEST PUSH1 0x1 PUSH1 0x1 PUSH1 0xE0 SHL SUB NOT DUP4 AND PUSH1 0x0 SWAP1 DUP2 MSTORE PUSH1 0x1 PUSH1 0x20 MSTORE PUSH1 0x40 SWAP1 KECCAK256 DUP1 SLOAD PUSH1 0x1 PUSH1 0x1 PUSH1 0xA0 SHL SUB NOT AND PUSH1 0x1 PUSH1 0x1 PUSH1 0xA0 SHL SUB SWAP1 SWAP3 AND SWAP2 SWAP1 SWAP2 OR SWAP1 SSTORE JUMP JUMPDEST DUP12 MLOAD PUSH2 0x9E8 SWAP1 PUSH1 0x1 PUSH1 0x1 PUSH1 0xA0 SHL SUB AND JUMPDEST PUSH1 0x1 PUSH1 0x1 PUSH1 0xA0 SHL SUB AND PUSH1 0x0 SWAP1 DUP2 MSTORE PUSH1 0x3 PUSH1 0x20 MSTORE PUSH1 0x40 SWAP1 KECCAK256 SWAP1 JUMP JUMPDEST PUSH2 0x726 JUMP JUMPDEST PUSH2 0x647 JUMP JUMPDEST PUSH2 0x949 JUMP JUMPDEST POP POP SWAP5 SWAP1 SWAP6 POP PUSH2 0xA08 SWAP2 SWAP7 POP PUSH2 0x647 JUMP JUMPDEST SWAP3 SWAP2 SWAP4 SWAP5 PUSH2 0x8F7 JUMP JUMPDEST DUP7 MLOAD PUSH2 0xA25 SWAP1 PUSH1 0x1 PUSH1 0x1 PUSH1 0xA0 SHL SUB AND PUSH2 0x7BD JUMP JUMPDEST PUSH2 0x941 JUMP JUMPDEST PUSH2 0xA4B PUSH2 0xA36 DUP3 PUSH2 0x778 JUMP JUMPDEST SWAP1 SLOAD PUSH1 0x3 SWAP2 SWAP1 SWAP2 SHL SHR PUSH1 0x1 PUSH1 0x1 PUSH1 0xA0 SHL SUB AND SWAP1 JUMP JUMPDEST DUP11 MLOAD PUSH2 0xA67 SWAP1 PUSH1 0x1 PUSH1 0x1 PUSH1 0xA0 SHL SUB AND JUMPDEST PUSH1 0x1 PUSH1 0x1 PUSH1 0xA0 SHL SUB AND SWAP1 JUMP JUMPDEST PUSH1 0x1 PUSH1 0x1 PUSH1 0xA0 SHL SUB SWAP1 SWAP2 AND EQ PUSH2 0xA85 JUMPI PUSH2 0xA80 SWAP1 PUSH2 0x647 JUMP JUMPDEST PUSH2 0x931 JUMP JUMPDEST POP POP POP PUSH1 0x1 CODESIZE DUP1 PUSH2 0x939 JUMP JUMPDEST SWAP1 SWAP6 SWAP4 SWAP5 SWAP2 SWAP7 DUP2 MLOAD SWAP2 PUSH2 0xAA3 DUP4 PUSH2 0x4DA JUMP JUMPDEST PUSH2 0xAAC DUP4 PUSH2 0x4DA JUMP JUMPDEST PUSH1 0x1 SWAP3 DUP4 SUB PUSH2 0xD1C JUMPI POP SWAP1 DUP7 DUP3 ADD PUSH1 0x0 DUP3 JUMPDEST PUSH2 0xAD0 JUMPI JUMPDEST POP POP POP POP PUSH2 0xA08 SWAP1 PUSH2 0x647 JUMP JUMPDEST DUP2 MLOAD DUP1 MLOAD DUP3 LT ISZERO PUSH2 0xD16 JUMPI PUSH2 0x968 DUP3 PUSH2 0xAE8 SWAP3 PUSH2 0x67A JUMP JUMPDEST PUSH2 0xB15 PUSH2 0xB08 DUP3 PUSH4 0xFFFFFFFF PUSH1 0xE0 SHL AND PUSH1 0x0 MSTORE PUSH1 0x1 PUSH1 0x20 MSTORE PUSH1 0x40 PUSH1 0x0 KECCAK256 SWAP1 JUMP JUMPDEST SLOAD PUSH1 0x1 PUSH1 0x1 PUSH1 0xA0 SHL SUB AND SWAP1 JUMP JUMPDEST PUSH1 0x1 PUSH1 0x1 PUSH1 0xA0 SHL SUB SWAP2 SWAP1 DUP3 DUP2 AND PUSH2 0xBEC JUMPI JUMPDEST POP DUP6 MLOAD SWAP2 SWAP3 DUP6 SWAP3 SWAP1 SWAP2 PUSH2 0xB5A SWAP2 PUSH2 0xB46 SWAP1 PUSH1 0x1 PUSH1 0x1 PUSH1 0xA0 SHL SUB AND PUSH2 0x986 JUMP JUMPDEST DUP8 MLOAD PUSH2 0x9E8 SWAP1 PUSH1 0x1 PUSH1 0x1 PUSH1 0xA0 SHL SUB AND PUSH2 0x9CE JUMP JUMPDEST PUSH1 0x0 DUP1 SWAP4 PUSH1 0x2 SLOAD SWAP1 JUMPDEST DUP2 DUP7 LT PUSH2 0xB97 JUMPI JUMPDEST POP POP PUSH2 0xB7D SWAP3 SWAP4 POP ISZERO PUSH2 0xB83 JUMPI PUSH2 0x647 JUMP JUMPDEST SWAP1 PUSH2 0xABE JUMP JUMPDEST DUP6 MLOAD PUSH2 0x9ED SWAP1 PUSH1 0x1 PUSH1 0x1 PUSH1 0xA0 SHL SUB AND PUSH2 0x7BD JUMP JUMPDEST SWAP2 SWAP4 PUSH2 0xBA8 PUSH2 0xA36 DUP8 SWAP4 SWAP6 SWAP8 PUSH2 0x778 JUMP JUMPDEST DUP10 MLOAD DUP5 SWAP1 PUSH2 0xBBE SWAP1 PUSH1 0x1 PUSH1 0x1 PUSH1 0xA0 SHL SUB AND PUSH2 0xA5B JUMP JUMPDEST SWAP2 AND EQ PUSH2 0xBD9 JUMPI POP PUSH2 0xBCF SWAP1 PUSH2 0x647 JUMP JUMPDEST SWAP4 SWAP2 DUP7 SWAP4 SWAP2 PUSH2 0xB63 JUMP JUMPDEST SWAP5 SWAP3 POP POP POP PUSH2 0xB7D SWAP2 POP DUP3 DUP4 SWAP3 CODESIZE PUSH2 0xB6B JUMP JUMPDEST PUSH1 0x1 PUSH1 0x1 PUSH1 0xE0 SHL SUB NOT DUP3 AND DUP7 PUSH1 0x0 DUP2 JUMPDEST PUSH2 0xC09 JUMPI JUMPDEST POP POP POP PUSH2 0xB27 JUMP JUMPDEST PUSH1 0x1 PUSH1 0x1 PUSH1 0xA0 SHL SUB DUP5 AND PUSH1 0x0 SWAP1 DUP2 MSTORE PUSH1 0x3 PUSH1 0x20 MSTORE PUSH1 0x40 SWAP1 KECCAK256 SLOAD DUP2 LT ISZERO PUSH2 0xD11 JUMPI DUP3 PUSH2 0xC6F PUSH2 0xC62 PUSH2 0xC55 DUP5 PUSH2 0xC50 DUP10 PUSH1 0x1 DUP1 PUSH1 0xA0 SHL SUB AND PUSH1 0x0 MSTORE PUSH1 0x3 PUSH1 0x20 MSTORE PUSH1 0x40 PUSH1 0x0 KECCAK256 SWAP1 JUMP JUMPDEST PUSH2 0x69C JUMP JUMPDEST SWAP1 SLOAD SWAP1 PUSH1 0x3 SHL SHR PUSH1 0xE0 SHL SWAP1 JUMP JUMPDEST PUSH1 0x1 PUSH1 0x1 PUSH1 0xE0 SHL SUB NOT AND SWAP1 JUMP JUMPDEST EQ PUSH2 0xC83 JUMPI PUSH2 0xC7D SWAP1 PUSH2 0x647 JUMP JUMPDEST DUP2 PUSH2 0xBFC JUMP JUMPDEST PUSH2 0xD08 SWAP3 POP PUSH2 0xD03 SWAP2 POP SWAP3 PUSH2 0x9CE PUSH2 0xB5A SWAP6 SWAP5 PUSH2 0x749 PUSH2 0xCE3 PUSH2 0xC55 PUSH2 0xCBB DUP7 PUSH1 0x1 DUP1 PUSH1 0xA0 SHL SUB AND PUSH1 0x0 MSTORE PUSH1 0x3 PUSH1 0x20 MSTORE PUSH1 0x40 PUSH1 0x0 KECCAK256 SWAP1 JUMP JUMPDEST PUSH1 0x1 PUSH1 0x1 PUSH1 0xA0 SHL SUB DUP8 AND PUSH1 0x0 SWAP1 DUP2 MSTORE PUSH1 0x3 PUSH1 0x20 MSTORE PUSH1 0x40 SWAP1 KECCAK256 PUSH2 0xCDD SWAP1 SLOAD PUSH2 0x6CD JUMP JUMPDEST SWAP1 PUSH2 0x69C JUMP JUMPDEST PUSH1 0x1 PUSH1 0x1 PUSH1 0xA0 SHL SUB DUP6 AND PUSH1 0x0 SWAP1 DUP2 MSTORE PUSH1 0x3 PUSH1 0x20 MSTORE PUSH1 0x40 SWAP1 KECCAK256 SWAP1 SWAP3 SWAP1 PUSH2 0x69C JUMP JUMPDEST PUSH2 0x6E6 JUMP JUMPDEST SWAP1 CODESIZE DUP7 DUP2 PUSH2 0xC01 JUMP JUMPDEST PUSH2 0xC01 JUMP JUMPDEST POP PUSH2 0xAC3 JUMP JUMPDEST PUSH1 0x2 SWAP1 MLOAD PUSH2 0xD29 DUP2 PUSH2 0x4DA JUMP JUMPDEST PUSH2 0xD32 DUP2 PUSH2 0x4DA JUMP JUMPDEST EQ PUSH2 0xD43 JUMPI JUMPDEST POP POP PUSH2 0xA08 SWAP1 PUSH2 0x647 JUMP JUMPDEST DUP7 ADD PUSH1 0x0 DUP3 JUMPDEST PUSH2 0xD54 JUMPI JUMPDEST POP PUSH2 0xD38 JUMP JUMPDEST DUP2 MLOAD DUP1 MLOAD DUP3 LT ISZERO PUSH2 0xEA7 JUMPI SWAP1 PUSH2 0xD6E PUSH2 0x968 DUP3 DUP7 SWAP5 PUSH2 0x67A JUMP JUMPDEST PUSH2 0xD8E PUSH2 0xB08 DUP3 PUSH4 0xFFFFFFFF PUSH1 0xE0 SHL AND PUSH1 0x0 MSTORE PUSH1 0x1 PUSH1 0x20 MSTORE PUSH1 0x40 PUSH1 0x0 KECCAK256 SWAP1 JUMP JUMPDEST SWAP1 PUSH2 0xDBF PUSH2 0xDAF DUP3 PUSH4 0xFFFFFFFF PUSH1 0xE0 SHL AND PUSH1 0x0 MSTORE PUSH1 0x1 PUSH1 0x20 MSTORE PUSH1 0x40 PUSH1 0x0 KECCAK256 SWAP1 JUMP JUMPDEST DUP1 SLOAD PUSH1 0x1 PUSH1 0x1 PUSH1 0xA0 SHL SUB NOT AND SWAP1 SSTORE JUMP JUMPDEST PUSH1 0x1 PUSH1 0x1 PUSH1 0xA0 SHL SUB DUP3 AND PUSH2 0xDDF JUMPI JUMPDEST POP POP PUSH2 0xDD9 SWAP1 PUSH2 0x647 JUMP JUMPDEST SWAP1 PUSH2 0xD49 JUMP JUMPDEST PUSH1 0x1 PUSH1 0x1 PUSH1 0xE0 SHL SUB NOT AND PUSH1 0x0 DUP5 JUMPDEST PUSH2 0xDF8 JUMPI JUMPDEST POP PUSH2 0xDCE JUMP JUMPDEST PUSH2 0xE18 DUP4 SWAP5 SWAP6 SWAP3 SWAP4 PUSH1 0x1 DUP1 PUSH1 0xA0 SHL SUB AND PUSH1 0x0 MSTORE PUSH1 0x3 PUSH1 0x20 MSTORE PUSH1 0x40 PUSH1 0x0 KECCAK256 SWAP1 JUMP JUMPDEST SLOAD DUP2 LT ISZERO PUSH2 0xE9E JUMPI DUP3 PUSH2 0xE47 PUSH2 0xC62 PUSH2 0xC55 DUP5 PUSH2 0xC50 DUP10 PUSH1 0x1 DUP1 PUSH1 0xA0 SHL SUB AND PUSH1 0x0 MSTORE PUSH1 0x3 PUSH1 0x20 MSTORE PUSH1 0x40 PUSH1 0x0 KECCAK256 SWAP1 JUMP JUMPDEST EQ PUSH2 0xE5F JUMPI PUSH2 0xE55 SWAP1 PUSH2 0x647 JUMP JUMPDEST DUP2 SWAP5 SWAP4 SWAP3 SWAP2 PUSH2 0xDED JUMP JUMPDEST PUSH2 0xE96 SWAP2 SWAP5 SWAP3 POP DUP4 PUSH2 0x9CE PUSH2 0xD03 SWAP3 PUSH2 0x749 PUSH2 0xCE3 PUSH2 0xC55 PUSH2 0xCBB PUSH2 0xDD9 SWAP11 PUSH1 0x1 DUP1 PUSH1 0xA0 SHL SUB AND PUSH1 0x0 MSTORE PUSH1 0x3 PUSH1 0x20 MSTORE PUSH1 0x40 PUSH1 0x0 KECCAK256 SWAP1 JUMP JUMPDEST SWAP1 CODESIZE DUP1 PUSH2 0xDF2 JUMP JUMPDEST DUP2 SWAP5 SWAP4 POP PUSH2 0xDF2 JUMP JUMPDEST POP PUSH2 0xD4E JUMP JUMPDEST SWAP4 SWAP5 POP SWAP3 SWAP2 POP POP PUSH1 0x1 PUSH1 0x1 PUSH1 0xA0 SHL SUB DUP3 AND ISZERO ISZERO DUP1 PUSH2 0xEED JUMPI JUMPDEST PUSH2 0xECE JUMPI POP POP JUMP JUMPDEST PUSH1 0x0 DUP2 PUSH2 0x6E4 SWAP4 PUSH1 0x20 DUP4 SWAP5 MLOAD SWAP3 ADD SWAP1 GAS DELEGATECALL PUSH2 0xEE7 PUSH2 0x83D JUMP JUMPDEST POP PUSH2 0x86D JUMP JUMPDEST POP DUP1 MLOAD ISZERO ISZERO PUSH2 0xEC6 JUMP INVALID LOG2 PUSH5 0x6970667358 0x22 SLT KECCAK256 0xBE SWAP1 0x24 0xEE XOR 0xF9 DIFFICULTY 0xC6 LT 0xE4 0x49 0x2C 0xF6 0x4F 0xCD 0xB5 NUMBER 0xD0 OR 0x27 MSTORE8 PUSH4 0x15312EAD PUSH22 0x6858BAA9F64736F6C63430008110033000000000000 "},"methodIdentifiers":{"getFacetAddresses()":"3bed2f49","getFacetForSelector(bytes4)":"68d49ba1","testDiamondCut((address,uint8,bytes4[])[],address,bytes)":"ac642c0f"}}}}}