{"test/mocks/contracts/facets/MockTestFacet.sol":{"MockTestFacet":{"abi":[{"inputs":[{"internalType":"uint256","name":"a","type":"uint256"},{"internalType":"uint256","name":"b","type":"uint256"}],"name":"add","outputs":[{"internalType":"uint256","name":"","type":"uint256"}],"stateMutability":"pure","type":"function"},{"inputs":[{"internalType":"uint256","name":"a","type":"uint256"},{"internalType":"uint256","name":"b","type":"uint256"}],"name":"divide","outputs":[{"internalType":"uint256","name":"","type":"uint256"}],"stateMutability":"pure","type":"function"},{"inputs":[],"name":"getValue","outputs":[{"internalType":"uint256","name":"","type":"uint256"}],"stateMutability":"view","type":"function"},{"inputs":[],"name":"initialize","outputs":[],"stateMutability":"nonpayable","type":"function"},{"inputs":[],"name":"initialized","outputs":[{"internalType":"bool","name":"","type":"bool"}],"stateMutability":"view","type":"function"},{"inputs":[{"internalType":"uint256","name":"a","type":"uint256"},{"internalType":"uint256","name":"b","type":"uint256"}],"name":"multiply","outputs":[{"internalType":"uint256","name":"","type":"uint256"}],"stateMutability":"pure","type":"function"},{"inputs":[],"name":"reinitialize","outputs":[],"stateMutability":"nonpayable","type":"function"},{"inputs":[{"internalType":"uint256","name":"_value","type":"uint256"}],"name":"setValue","outputs":[],"stateMutability":"nonpayable","type":"function"},{"inputs":[{"internalType":"uint256","name":"a","type":"uint256"},{"internalType":"uint256","name":"b","type":"uint256"}],"name":"subtract","outputs":[{"internalType":"uint256","name":"","type":"uint256"}],"stateMutability":"pure","type":"function"},{"inputs":[],"name":"value","outputs":[{"internalType":"uint256","name":"","type":"uint256"}],"stateMutability":"view","type":"function"}],"evm":{"bytecode":{"linkReferences":{},"object":"60808060405234610016576102d5908161001c8239f35b600080fdfe60806040908082526004908136101561001757600080fd5b600090813560e01c908163158ef93e1461026357508063165c4a161461023757806320965255146101db5780633ef5e445146101f85780633fa4f245146101db57806355241077146101c25780636c2eb3501461019e578063771602f7146101625780638129fc1c146100f35763f88e9fbf1461009357600080fd5b346100f057506100a236610284565b909181156100b557506020925191048152f35b606490602085519162461bcd60e51b8352820152601560248201527443616e6e6f7420646976696465206279207a65726f60581b6044820152fd5b80fd5b5091903461015e578260031936011261015e576001549160ff8316610125578360018460ff191617600155602a815580f35b906020606492519162461bcd60e51b83528201526013602482015272105b1c9958591e481a5b9a5d1a585b1a5e9959606a1b6044820152fd5b8280fd5b50823461019a5761017236610284565b81939101809311610187576020838351908152f35b634e487b7160e01b815260118452602490fd5b5080fd5b50346100f057806003193601126100f057600160ff19815416176001556064815580f35b50903461019a57602036600319011261019a5735815580f35b50823461019a578160031936011261019a57602091549051908152f35b508290346100f05761020936610284565b9091908083111561022a578203918211610187575060209250905b51908152f35b5090506020925090610224565b50823461019a5761024736610284565b9290838102938185041490151715610187576020838351908152f35b90503461019a578160031936011261019a5760209060ff6001541615158152f35b604090600319011261029a576004359060243590565b600080fdfea2646970667358221220d58deeb1f236086042be060cdd8d87cb82730b2893e5ceccd42ad3b2aa47c0b564736f6c63430008110033","opcodes":"PUSH1 0x80 DUP1 PUSH1 0x40 MSTORE CALLVALUE PUSH2 0x16 JUMPI PUSH2 0x2D5 SWAP1 DUP2 PUSH2 0x1C DUP3 CODECOPY RETURN JUMPDEST PUSH1 0x0 DUP1 REVERT INVALID PUSH1 0x80 PUSH1 0x40 SWAP1 DUP1 DUP3 MSTORE PUSH1 0x4 SWAP1 DUP2 CALLDATASIZE LT ISZERO PUSH2 0x17 JUMPI PUSH1 0x0 DUP1 REVERT JUMPDEST PUSH1 0x0 SWAP1 DUP2 CALLDATALOAD PUSH1 0xE0 SHR SWAP1 DUP2 PUSH4 0x158EF93E EQ PUSH2 0x263 JUMPI POP DUP1 PUSH4 0x165C4A16 EQ PUSH2 0x237 JUMPI DUP1 PUSH4 0x20965255 EQ PUSH2 0x1DB JUMPI DUP1 PUSH4 0x3EF5E445 EQ PUSH2 0x1F8 JUMPI DUP1 PUSH4 0x3FA4F245 EQ PUSH2 0x1DB JUMPI DUP1 PUSH4 0x55241077 EQ PUSH2 0x1C2 JUMPI DUP1 PUSH4 0x6C2EB350 EQ PUSH2 0x19E JUMPI DUP1 PUSH4 0x771602F7 EQ PUSH2 0x162 JUMPI DUP1 PUSH4 0x8129FC1C EQ PUSH2 0xF3 JUMPI PUSH4 0xF88E9FBF EQ PUSH2 0x93 JUMPI PUSH1 0x0 DUP1 REVERT JUMPDEST CALLVALUE PUSH2 0xF0 JUMPI POP PUSH2 0xA2 CALLDATASIZE PUSH2 0x284 JUMP JUMPDEST SWAP1 SWAP2 DUP2 ISZERO PUSH2 0xB5 JUMPI POP PUSH1 0x20 SWAP3 MLOAD SWAP2 DIV DUP2 MSTORE RETURN JUMPDEST PUSH1 0x64 SWAP1 PUSH1 0x20 DUP6 MLOAD SWAP2 PUSH3 0x461BCD PUSH1 0xE5 SHL DUP4 MSTORE DUP3 ADD MSTORE PUSH1 0x15 PUSH1 0x24 DUP3 ADD MSTORE PUSH21 0x43616E6E6F7420646976696465206279207A65726F PUSH1 0x58 SHL PUSH1 0x44 DUP3 ADD MSTORE REVERT JUMPDEST DUP1 REVERT JUMPDEST POP SWAP2 SWAP1 CALLVALUE PUSH2 0x15E JUMPI DUP3 PUSH1 0x3 NOT CALLDATASIZE ADD SLT PUSH2 0x15E JUMPI PUSH1 0x1 SLOAD SWAP2 PUSH1 0xFF DUP4 AND PUSH2 0x125 JUMPI DUP4 PUSH1 0x1 DUP5 PUSH1 0xFF NOT AND OR PUSH1 0x1 SSTORE PUSH1 0x2A DUP2 SSTORE DUP1 RETURN JUMPDEST SWAP1 PUSH1 0x20 PUSH1 0x64 SWAP3 MLOAD SWAP2 PUSH3 0x461BCD PUSH1 0xE5 SHL DUP4 MSTORE DUP3 ADD MSTORE PUSH1 0x13 PUSH1 0x24 DUP3 ADD MSTORE PUSH19 0x105B1C9958591E481A5B9A5D1A585B1A5E9959 PUSH1 0x6A SHL PUSH1 0x44 DUP3 ADD MSTORE REVERT JUMPDEST DUP3 DUP1 REVERT JUMPDEST POP DUP3 CALLVALUE PUSH2 0x19A JUMPI PUSH2 0x172 CALLDATASIZE PUSH2 0x284 JUMP JUMPDEST DUP2 SWAP4 SWAP2 ADD DUP1 SWAP4 GT PUSH2 0x187 JUMPI PUSH1 0x20 DUP4 DUP4 MLOAD SWAP1 DUP2 MSTORE RETURN JUMPDEST PUSH4 0x4E487B71 PUSH1 0xE0 SHL DUP2 MSTORE PUSH1 0x11 DUP5 MSTORE PUSH1 0x24 SWAP1 REVERT JUMPDEST POP DUP1 REVERT JUMPDEST POP CALLVALUE PUSH2 0xF0 JUMPI DUP1 PUSH1 0x3 NOT CALLDATASIZE ADD SLT PUSH2 0xF0 JUMPI PUSH1 0x1 PUSH1 0xFF NOT DUP2 SLOAD AND OR PUSH1 0x1 SSTORE PUSH1 0x64 DUP2 SSTORE DUP1 RETURN JUMPDEST POP SWAP1 CALLVALUE PUSH2 0x19A JUMPI PUSH1 0x20 CALLDATASIZE PUSH1 0x3 NOT ADD SLT PUSH2 0x19A JUMPI CALLDATALOAD DUP2 SSTORE DUP1 RETURN JUMPDEST POP DUP3 CALLVALUE PUSH2 0x19A JUMPI DUP2 PUSH1 0x3 NOT CALLDATASIZE ADD SLT PUSH2 0x19A JUMPI PUSH1 0x20 SWAP2 SLOAD SWAP1 MLOAD SWAP1 DUP2 MSTORE RETURN JUMPDEST POP DUP3 SWAP1 CALLVALUE PUSH2 0xF0 JUMPI PUSH2 0x209 CALLDATASIZE PUSH2 0x284 JUMP JUMPDEST SWAP1 SWAP2 SWAP1 DUP1 DUP4 GT ISZERO PUSH2 0x22A JUMPI DUP3 SUB SWAP2 DUP3 GT PUSH2 0x187 JUMPI POP PUSH1 0x20 SWAP3 POP SWAP1 JUMPDEST MLOAD SWAP1 DUP2 MSTORE RETURN JUMPDEST POP SWAP1 POP PUSH1 0x20 SWAP3 POP SWAP1 PUSH2 0x224 JUMP JUMPDEST POP DUP3 CALLVALUE PUSH2 0x19A JUMPI PUSH2 0x247 CALLDATASIZE PUSH2 0x284 JUMP JUMPDEST SWAP3 SWAP1 DUP4 DUP2 MUL SWAP4 DUP2 DUP6 DIV EQ SWAP1 ISZERO OR ISZERO PUSH2 0x187 JUMPI PUSH1 0x20 DUP4 DUP4 MLOAD SWAP1 DUP2 MSTORE RETURN JUMPDEST SWAP1 POP CALLVALUE PUSH2 0x19A JUMPI DUP2 PUSH1 0x3 NOT CALLDATASIZE ADD SLT PUSH2 0x19A JUMPI PUSH1 0x20 SWAP1 PUSH1 0xFF PUSH1 0x1 SLOAD AND ISZERO ISZERO DUP2 MSTORE RETURN JUMPDEST PUSH1 0x40 SWAP1 PUSH1 0x3 NOT ADD SLT PUSH2 0x29A JUMPI PUSH1 0x4 CALLDATALOAD SWAP1 PUSH1 0x24 CALLDATALOAD SWAP1 JUMP JUMPDEST PUSH1 0x0 DUP1 REVERT INVALID LOG2 PUSH5 0x6970667358 0x22 SLT KECCAK256 0xD5 DUP14 0xEE 0xB1 CALLCODE CALLDATASIZE ADDMOD PUSH1 0x42 0xBE MOD 0xC 0xDD DUP14 DUP8 0xCB DUP3 PUSH20 0xB2893E5CECCD42AD3B2AA47C0B564736F6C6343 STOP ADDMOD GT STOP CALLER "},"methodIdentifiers":{"add(uint256,uint256)":"771602f7","divide(uint256,uint256)":"f88e9fbf","getValue()":"20965255","initialize()":"8129fc1c","initialized()":"158ef93e","multiply(uint256,uint256)":"165c4a16","reinitialize()":"6c2eb350","setValue(uint256)":"55241077","subtract(uint256,uint256)":"3ef5e445","value()":"3fa4f245"}}}}}