{"test/mocks/contracts/facets/MockDiamondLoupeFacet.sol":{"MockDiamondLoupeFacet":{"abi":[{"inputs":[{"internalType":"bytes4","name":"_functionSelector","type":"bytes4"}],"name":"facetAddress","outputs":[{"internalType":"address","name":"facetAddress_","type":"address"}],"stateMutability":"view","type":"function"},{"inputs":[],"name":"facetAddresses","outputs":[{"internalType":"address[]","name":"facetAddresses_","type":"address[]"}],"stateMutability":"view","type":"function"},{"inputs":[{"internalType":"address","name":"_facet","type":"address"}],"name":"facetFunctionSelectors","outputs":[{"internalType":"bytes4[]","name":"facetFunctionSelectors_","type":"bytes4[]"}],"stateMutability":"view","type":"function"},{"inputs":[],"name":"facets","outputs":[{"components":[{"internalType":"address","name":"facetAddress","type":"address"},{"internalType":"bytes4[]","name":"functionSelectors","type":"bytes4[]"}],"internalType":"struct IDiamondLoupe.Facet[]","name":"facets_","type":"tuple[]"}],"stateMutability":"view","type":"function"}],"evm":{"bytecode":{"linkReferences":{},"object":"6080806040523461001657610618908161001c8239f35b600080fdfe6040608081526004908136101561001557600080fd5b600091823560e01c806352ef6b2c146103b05780637a0ed627146101c7578063adfca15e146100955763cdffacc61461004d57600080fd5b346100915760203660031901126100915735916001600160e01b03198316830361008e575061007d60209261054f565b90516001600160a01b039091168152f35b80fd5b8280fd5b50913461008e576020908160031936011261008e5783356001600160a01b038116908190036101c357731234567890123456789012345678901234567890810361011a5750509091506101166100e96104bc565b92600184528236818601376307e4c70760e21b610105856104fc565b525b51928284938452830190610448565b0390f35b30036101875750906101169061012e6104dc565b9384526080368486013783637a0ed62760e01b61014a826104fc565b526356fe50af60e11b61015c8261051f565b526314bbdacb60e21b61016e8261052f565b526366ffd66360e11b906101819061053f565b52610107565b82519082820182811067ffffffffffffffff8211176101b0578452815292509061011690610107565b634e487b7160e01b825260418652602482fd5b5080fd5b50913461008e578060031936011261008e57916101e2610486565b9260028452805b838110610363575073123456789012345678901234567890123456789061020f856104fc565b51526102196104bc565b9260019283855260209485368183013785610233886104fc565b5101526307e4c70760e21b6102538661024b896104fc565b5101516104fc565b523061025e8761051f565b51526102686104dc565b908152608036868301378461027c8761051f565b510152637a0ed62760e01b6102948561024b8861051f565b526356fe50af60e11b6102b2856102aa8861051f565b51015161051f565b526314bbdacb60e21b6102d0856102c88861051f565b51015161052f565b526366ffd66360e11b6102ee856102e68861051f565b51015161053f565b5280519380850191818652865180935280860182828560051b890101980194915b84831061031c5787890388f35b9091929394958480610351839b603f198c820301875285838c5160018060a01b03815116845201519181858201520190610448565b9a98019695949190910192019061030f565b839492945184810181811067ffffffffffffffff82111761039d5790602092918652838152826060818301528286010152019391936101e9565b634e487b7160e01b845260418752602484fd5b82843461008e578060031936011261008e57906103cb610486565b6002815260209283820191833684377312345678901234567890123456789012345678906103f8826104fc565b52306104038261051f565b5283519485948186019282875251809352850193925b82811061042857505050500390f35b83516001600160a01b031685528695509381019392810192600101610419565b90815180825260208080930193019160005b828110610468575050505090565b83516001600160e01b0319168552938101939281019260010161045a565b604051906060820182811067ffffffffffffffff8211176104a657604052565b634e487b7160e01b600052604160045260246000fd5b604051906040820182811067ffffffffffffffff8211176104a657604052565b6040519060a0820182811067ffffffffffffffff8211176104a657604052565b8051156105095760200190565b634e487b7160e01b600052603260045260246000fd5b8051600110156105095760400190565b8051600210156105095760600190565b8051600310156105095760800190565b6001600160e01b0319166307e4c70760e21b8103610580575073123456789012345678901234567890123456789090565b637a0ed62760e01b81149081156105d1575b81156105c0575b81156105af575b50156105aa573090565b600090565b6366ffd66360e11b149050386105a0565b6314bbdacb60e21b81149150610599565b6356fe50af60e11b8114915061059256fea264697066735822122050e658e47e644f0649e1ec9472ec8162082cbd1e50ffd716e353d100c4ea583664736f6c63430008110033","opcodes":"PUSH1 0x80 DUP1 PUSH1 0x40 MSTORE CALLVALUE PUSH2 0x16 JUMPI PUSH2 0x618 SWAP1 DUP2 PUSH2 0x1C DUP3 CODECOPY RETURN JUMPDEST PUSH1 0x0 DUP1 REVERT INVALID PUSH1 0x40 PUSH1 0x80 DUP2 MSTORE PUSH1 0x4 SWAP1 DUP2 CALLDATASIZE LT ISZERO PUSH2 0x15 JUMPI PUSH1 0x0 DUP1 REVERT JUMPDEST PUSH1 0x0 SWAP2 DUP3 CALLDATALOAD PUSH1 0xE0 SHR DUP1 PUSH4 0x52EF6B2C EQ PUSH2 0x3B0 JUMPI DUP1 PUSH4 0x7A0ED627 EQ PUSH2 0x1C7 JUMPI DUP1 PUSH4 0xADFCA15E EQ PUSH2 0x95 JUMPI PUSH4 0xCDFFACC6 EQ PUSH2 0x4D JUMPI PUSH1 0x0 DUP1 REVERT JUMPDEST CALLVALUE PUSH2 0x91 JUMPI PUSH1 0x20 CALLDATASIZE PUSH1 0x3 NOT ADD SLT PUSH2 0x91 JUMPI CALLDATALOAD SWAP2 PUSH1 0x1 PUSH1 0x1 PUSH1 0xE0 SHL SUB NOT DUP4 AND DUP4 SUB PUSH2 0x8E JUMPI POP PUSH2 0x7D PUSH1 0x20 SWAP3 PUSH2 0x54F JUMP JUMPDEST SWAP1 MLOAD PUSH1 0x1 PUSH1 0x1 PUSH1 0xA0 SHL SUB SWAP1 SWAP2 AND DUP2 MSTORE RETURN JUMPDEST DUP1 REVERT JUMPDEST DUP3 DUP1 REVERT JUMPDEST POP SWAP2 CALLVALUE PUSH2 0x8E JUMPI PUSH1 0x20 SWAP1 DUP2 PUSH1 0x3 NOT CALLDATASIZE ADD SLT PUSH2 0x8E JUMPI DUP4 CALLDATALOAD PUSH1 0x1 PUSH1 0x1 PUSH1 0xA0 SHL SUB DUP2 AND SWAP1 DUP2 SWAP1 SUB PUSH2 0x1C3 JUMPI PUSH20 0x1234567890123456789012345678901234567890 DUP2 SUB PUSH2 0x11A JUMPI POP POP SWAP1 SWAP2 POP PUSH2 0x116 PUSH2 0xE9 PUSH2 0x4BC JUMP JUMPDEST SWAP3 PUSH1 0x1 DUP5 MSTORE DUP3 CALLDATASIZE DUP2 DUP7 ADD CALLDATACOPY PUSH4 0x7E4C707 PUSH1 0xE2 SHL PUSH2 0x105 DUP6 PUSH2 0x4FC JUMP JUMPDEST MSTORE JUMPDEST MLOAD SWAP3 DUP3 DUP5 SWAP4 DUP5 MSTORE DUP4 ADD SWAP1 PUSH2 0x448 JUMP JUMPDEST SUB SWAP1 RETURN JUMPDEST ADDRESS SUB PUSH2 0x187 JUMPI POP SWAP1 PUSH2 0x116 SWAP1 PUSH2 0x12E PUSH2 0x4DC JUMP JUMPDEST SWAP4 DUP5 MSTORE PUSH1 0x80 CALLDATASIZE DUP5 DUP7 ADD CALLDATACOPY DUP4 PUSH4 0x7A0ED627 PUSH1 0xE0 SHL PUSH2 0x14A DUP3 PUSH2 0x4FC JUMP JUMPDEST MSTORE PUSH4 0x56FE50AF PUSH1 0xE1 SHL PUSH2 0x15C DUP3 PUSH2 0x51F JUMP JUMPDEST MSTORE PUSH4 0x14BBDACB PUSH1 0xE2 SHL PUSH2 0x16E DUP3 PUSH2 0x52F JUMP JUMPDEST MSTORE PUSH4 0x66FFD663 PUSH1 0xE1 SHL SWAP1 PUSH2 0x181 SWAP1 PUSH2 0x53F JUMP JUMPDEST MSTORE PUSH2 0x107 JUMP JUMPDEST DUP3 MLOAD SWAP1 DUP3 DUP3 ADD DUP3 DUP2 LT PUSH8 0xFFFFFFFFFFFFFFFF DUP3 GT OR PUSH2 0x1B0 JUMPI DUP5 MSTORE DUP2 MSTORE SWAP3 POP SWAP1 PUSH2 0x116 SWAP1 PUSH2 0x107 JUMP JUMPDEST PUSH4 0x4E487B71 PUSH1 0xE0 SHL DUP3 MSTORE PUSH1 0x41 DUP7 MSTORE PUSH1 0x24 DUP3 REVERT JUMPDEST POP DUP1 REVERT JUMPDEST POP SWAP2 CALLVALUE PUSH2 0x8E JUMPI DUP1 PUSH1 0x3 NOT CALLDATASIZE ADD SLT PUSH2 0x8E JUMPI SWAP2 PUSH2 0x1E2 PUSH2 0x486 JUMP JUMPDEST SWAP3 PUSH1 0x2 DUP5 MSTORE DUP1 JUMPDEST DUP4 DUP2 LT PUSH2 0x363 JUMPI POP PUSH20 0x1234567890123456789012345678901234567890 PUSH2 0x20F DUP6 PUSH2 0x4FC JUMP JUMPDEST MLOAD MSTORE PUSH2 0x219 PUSH2 0x4BC JUMP JUMPDEST SWAP3 PUSH1 0x1 SWAP3 DUP4 DUP6 MSTORE PUSH1 0x20 SWAP5 DUP6 CALLDATASIZE DUP2 DUP4 ADD CALLDATACOPY DUP6 PUSH2 0x233 DUP9 PUSH2 0x4FC JUMP JUMPDEST MLOAD ADD MSTORE PUSH4 0x7E4C707 PUSH1 0xE2 SHL PUSH2 0x253 DUP7 PUSH2 0x24B DUP10 PUSH2 0x4FC JUMP JUMPDEST MLOAD ADD MLOAD PUSH2 0x4FC JUMP JUMPDEST MSTORE ADDRESS PUSH2 0x25E DUP8 PUSH2 0x51F JUMP JUMPDEST MLOAD MSTORE PUSH2 0x268 PUSH2 0x4DC JUMP JUMPDEST SWAP1 DUP2 MSTORE PUSH1 0x80 CALLDATASIZE DUP7 DUP4 ADD CALLDATACOPY DUP5 PUSH2 0x27C DUP8 PUSH2 0x51F JUMP JUMPDEST MLOAD ADD MSTORE PUSH4 0x7A0ED627 PUSH1 0xE0 SHL PUSH2 0x294 DUP6 PUSH2 0x24B DUP9 PUSH2 0x51F JUMP JUMPDEST MSTORE PUSH4 0x56FE50AF PUSH1 0xE1 SHL PUSH2 0x2B2 DUP6 PUSH2 0x2AA DUP9 PUSH2 0x51F JUMP JUMPDEST MLOAD ADD MLOAD PUSH2 0x51F JUMP JUMPDEST MSTORE PUSH4 0x14BBDACB PUSH1 0xE2 SHL PUSH2 0x2D0 DUP6 PUSH2 0x2C8 DUP9 PUSH2 0x51F JUMP JUMPDEST MLOAD ADD MLOAD PUSH2 0x52F JUMP JUMPDEST MSTORE PUSH4 0x66FFD663 PUSH1 0xE1 SHL PUSH2 0x2EE DUP6 PUSH2 0x2E6 DUP9 PUSH2 0x51F JUMP JUMPDEST MLOAD ADD MLOAD PUSH2 0x53F JUMP JUMPDEST MSTORE DUP1 MLOAD SWAP4 DUP1 DUP6 ADD SWAP2 DUP2 DUP7 MSTORE DUP7 MLOAD DUP1 SWAP4 MSTORE DUP1 DUP7 ADD DUP3 DUP3 DUP6 PUSH1 0x5 SHL DUP10 ADD ADD SWAP9 ADD SWAP5 SWAP2 JUMPDEST DUP5 DUP4 LT PUSH2 0x31C JUMPI DUP8 DUP10 SUB DUP9 RETURN JUMPDEST SWAP1 SWAP2 SWAP3 SWAP4 SWAP5 SWAP6 DUP5 DUP1 PUSH2 0x351 DUP4 SWAP12 PUSH1 0x3F NOT DUP13 DUP3 SUB ADD DUP8 MSTORE DUP6 DUP4 DUP13 MLOAD PUSH1 0x1 DUP1 PUSH1 0xA0 SHL SUB DUP2 MLOAD AND DUP5 MSTORE ADD MLOAD SWAP2 DUP2 DUP6 DUP3 ADD MSTORE ADD SWAP1 PUSH2 0x448 JUMP JUMPDEST SWAP11 SWAP9 ADD SWAP7 SWAP6 SWAP5 SWAP2 SWAP1 SWAP2 ADD SWAP3 ADD SWAP1 PUSH2 0x30F JUMP JUMPDEST DUP4 SWAP5 SWAP3 SWAP5 MLOAD DUP5 DUP2 ADD DUP2 DUP2 LT PUSH8 0xFFFFFFFFFFFFFFFF DUP3 GT OR PUSH2 0x39D JUMPI SWAP1 PUSH1 0x20 SWAP3 SWAP2 DUP7 MSTORE DUP4 DUP2 MSTORE DUP3 PUSH1 0x60 DUP2 DUP4 ADD MSTORE DUP3 DUP7 ADD ADD MSTORE ADD SWAP4 SWAP2 SWAP4 PUSH2 0x1E9 JUMP JUMPDEST PUSH4 0x4E487B71 PUSH1 0xE0 SHL DUP5 MSTORE PUSH1 0x41 DUP8 MSTORE PUSH1 0x24 DUP5 REVERT JUMPDEST DUP3 DUP5 CALLVALUE PUSH2 0x8E JUMPI DUP1 PUSH1 0x3 NOT CALLDATASIZE ADD SLT PUSH2 0x8E JUMPI SWAP1 PUSH2 0x3CB PUSH2 0x486 JUMP JUMPDEST PUSH1 0x2 DUP2 MSTORE PUSH1 0x20 SWAP3 DUP4 DUP3 ADD SWAP2 DUP4 CALLDATASIZE DUP5 CALLDATACOPY PUSH20 0x1234567890123456789012345678901234567890 PUSH2 0x3F8 DUP3 PUSH2 0x4FC JUMP JUMPDEST MSTORE ADDRESS PUSH2 0x403 DUP3 PUSH2 0x51F JUMP JUMPDEST MSTORE DUP4 MLOAD SWAP5 DUP6 SWAP5 DUP2 DUP7 ADD SWAP3 DUP3 DUP8 MSTORE MLOAD DUP1 SWAP4 MSTORE DUP6 ADD SWAP4 SWAP3 JUMPDEST DUP3 DUP2 LT PUSH2 0x428 JUMPI POP POP POP POP SUB SWAP1 RETURN JUMPDEST DUP4 MLOAD PUSH1 0x1 PUSH1 0x1 PUSH1 0xA0 SHL SUB AND DUP6 MSTORE DUP7 SWAP6 POP SWAP4 DUP2 ADD SWAP4 SWAP3 DUP2 ADD SWAP3 PUSH1 0x1 ADD PUSH2 0x419 JUMP JUMPDEST SWAP1 DUP2 MLOAD DUP1 DUP3 MSTORE PUSH1 0x20 DUP1 DUP1 SWAP4 ADD SWAP4 ADD SWAP2 PUSH1 0x0 JUMPDEST DUP3 DUP2 LT PUSH2 0x468 JUMPI POP POP POP POP SWAP1 JUMP JUMPDEST DUP4 MLOAD PUSH1 0x1 PUSH1 0x1 PUSH1 0xE0 SHL SUB NOT AND DUP6 MSTORE SWAP4 DUP2 ADD SWAP4 SWAP3 DUP2 ADD SWAP3 PUSH1 0x1 ADD PUSH2 0x45A JUMP JUMPDEST PUSH1 0x40 MLOAD SWAP1 PUSH1 0x60 DUP3 ADD DUP3 DUP2 LT PUSH8 0xFFFFFFFFFFFFFFFF DUP3 GT OR PUSH2 0x4A6 JUMPI PUSH1 0x40 MSTORE JUMP JUMPDEST PUSH4 0x4E487B71 PUSH1 0xE0 SHL PUSH1 0x0 MSTORE PUSH1 0x41 PUSH1 0x4 MSTORE PUSH1 0x24 PUSH1 0x0 REVERT JUMPDEST PUSH1 0x40 MLOAD SWAP1 PUSH1 0x40 DUP3 ADD DUP3 DUP2 LT PUSH8 0xFFFFFFFFFFFFFFFF DUP3 GT OR PUSH2 0x4A6 JUMPI PUSH1 0x40 MSTORE JUMP JUMPDEST PUSH1 0x40 MLOAD SWAP1 PUSH1 0xA0 DUP3 ADD DUP3 DUP2 LT PUSH8 0xFFFFFFFFFFFFFFFF DUP3 GT OR PUSH2 0x4A6 JUMPI PUSH1 0x40 MSTORE JUMP JUMPDEST DUP1 MLOAD ISZERO PUSH2 0x509 JUMPI PUSH1 0x20 ADD SWAP1 JUMP JUMPDEST PUSH4 0x4E487B71 PUSH1 0xE0 SHL PUSH1 0x0 MSTORE PUSH1 0x32 PUSH1 0x4 MSTORE PUSH1 0x24 PUSH1 0x0 REVERT JUMPDEST DUP1 MLOAD PUSH1 0x1 LT ISZERO PUSH2 0x509 JUMPI PUSH1 0x40 ADD SWAP1 JUMP JUMPDEST DUP1 MLOAD PUSH1 0x2 LT ISZERO PUSH2 0x509 JUMPI PUSH1 0x60 ADD SWAP1 JUMP JUMPDEST DUP1 MLOAD PUSH1 0x3 LT ISZERO PUSH2 0x509 JUMPI PUSH1 0x80 ADD SWAP1 JUMP JUMPDEST PUSH1 0x1 PUSH1 0x1 PUSH1 0xE0 SHL SUB NOT AND PUSH4 0x7E4C707 PUSH1 0xE2 SHL DUP2 SUB PUSH2 0x580 JUMPI POP PUSH20 0x1234567890123456789012345678901234567890 SWAP1 JUMP JUMPDEST PUSH4 0x7A0ED627 PUSH1 0xE0 SHL DUP2 EQ SWAP1 DUP2 ISZERO PUSH2 0x5D1 JUMPI JUMPDEST DUP2 ISZERO PUSH2 0x5C0 JUMPI JUMPDEST DUP2 ISZERO PUSH2 0x5AF JUMPI JUMPDEST POP ISZERO PUSH2 0x5AA JUMPI ADDRESS SWAP1 JUMP JUMPDEST PUSH1 0x0 SWAP1 JUMP JUMPDEST PUSH4 0x66FFD663 PUSH1 0xE1 SHL EQ SWAP1 POP CODESIZE PUSH2 0x5A0 JUMP JUMPDEST PUSH4 0x14BBDACB PUSH1 0xE2 SHL DUP2 EQ SWAP2 POP PUSH2 0x599 JUMP JUMPDEST PUSH4 0x56FE50AF PUSH1 0xE1 SHL DUP2 EQ SWAP2 POP PUSH2 0x592 JUMP INVALID LOG2 PUSH5 0x6970667358 0x22 SLT KECCAK256 POP 0xE6 PC 0xE4 PUSH31 0x644F0649E1EC9472EC8162082CBD1E50FFD716E353D100C4EA583664736F6C PUSH4 0x43000811 STOP CALLER "},"methodIdentifiers":{"facetAddress(bytes4)":"cdffacc6","facetAddresses()":"52ef6b2c","facetFunctionSelectors(address)":"adfca15e","facets()":"7a0ed627"}}}}}