{
  "_format": "hh-sol-artifact-1",
  "contractName": "MockDiamondLoupeFacet",
  "sourceName": "test/mocks/contracts/facets/MockDiamondLoupeFacet.sol",
  "abi": [
    {
      "inputs": [
        {
          "internalType": "bytes4",
          "name": "_functionSelector",
          "type": "bytes4"
        }
      ],
      "name": "facetAddress",
      "outputs": [
        {
          "internalType": "address",
          "name": "facetAddress_",
          "type": "address"
        }
      ],
      "stateMutability": "view",
      "type": "function"
    },
    {
      "inputs": [],
      "name": "facetAddresses",
      "outputs": [
        {
          "internalType": "address[]",
          "name": "facetAddresses_",
          "type": "address[]"
        }
      ],
      "stateMutability": "view",
      "type": "function"
    },
    {
      "inputs": [
        {
          "internalType": "address",
          "name": "_facet",
          "type": "address"
        }
      ],
      "name": "facetFunctionSelectors",
      "outputs": [
        {
          "internalType": "bytes4[]",
          "name": "facetFunctionSelectors_",
          "type": "bytes4[]"
        }
      ],
      "stateMutability": "view",
      "type": "function"
    },
    {
      "inputs": [],
      "name": "facets",
      "outputs": [
        {
          "components": [
            {
              "internalType": "address",
              "name": "facetAddress",
              "type": "address"
            },
            {
              "internalType": "bytes4[]",
              "name": "functionSelectors",
              "type": "bytes4[]"
            }
          ],
          "internalType": "struct IDiamondLoupe.Facet[]",
          "name": "facets_",
          "type": "tuple[]"
        }
      ],
      "stateMutability": "view",
      "type": "function"
    }
  ],
  "bytecode": "0x6080806040523461001657610618908161001c8239f35b600080fdfe6040608081526004908136101561001557600080fd5b600091823560e01c806352ef6b2c146103b05780637a0ed627146101c7578063adfca15e146100955763cdffacc61461004d57600080fd5b346100915760203660031901126100915735916001600160e01b03198316830361008e575061007d60209261054f565b90516001600160a01b039091168152f35b80fd5b8280fd5b50913461008e576020908160031936011261008e5783356001600160a01b038116908190036101c357731234567890123456789012345678901234567890810361011a5750509091506101166100e96104bc565b92600184528236818601376307e4c70760e21b610105856104fc565b525b51928284938452830190610448565b0390f35b30036101875750906101169061012e6104dc565b9384526080368486013783637a0ed62760e01b61014a826104fc565b526356fe50af60e11b61015c8261051f565b526314bbdacb60e21b61016e8261052f565b526366ffd66360e11b906101819061053f565b52610107565b82519082820182811067ffffffffffffffff8211176101b0578452815292509061011690610107565b634e487b7160e01b825260418652602482fd5b5080fd5b50913461008e578060031936011261008e57916101e2610486565b9260028452805b838110610363575073123456789012345678901234567890123456789061020f856104fc565b51526102196104bc565b9260019283855260209485368183013785610233886104fc565b5101526307e4c70760e21b6102538661024b896104fc565b5101516104fc565b523061025e8761051f565b51526102686104dc565b908152608036868301378461027c8761051f565b510152637a0ed62760e01b6102948561024b8861051f565b526356fe50af60e11b6102b2856102aa8861051f565b51015161051f565b526314bbdacb60e21b6102d0856102c88861051f565b51015161052f565b526366ffd66360e11b6102ee856102e68861051f565b51015161053f565b5280519380850191818652865180935280860182828560051b890101980194915b84831061031c5787890388f35b9091929394958480610351839b603f198c820301875285838c5160018060a01b03815116845201519181858201520190610448565b9a98019695949190910192019061030f565b839492945184810181811067ffffffffffffffff82111761039d5790602092918652838152826060818301528286010152019391936101e9565b634e487b7160e01b845260418752602484fd5b82843461008e578060031936011261008e57906103cb610486565b6002815260209283820191833684377312345678901234567890123456789012345678906103f8826104fc565b52306104038261051f565b5283519485948186019282875251809352850193925b82811061042857505050500390f35b83516001600160a01b031685528695509381019392810192600101610419565b90815180825260208080930193019160005b828110610468575050505090565b83516001600160e01b0319168552938101939281019260010161045a565b604051906060820182811067ffffffffffffffff8211176104a657604052565b634e487b7160e01b600052604160045260246000fd5b604051906040820182811067ffffffffffffffff8211176104a657604052565b6040519060a0820182811067ffffffffffffffff8211176104a657604052565b8051156105095760200190565b634e487b7160e01b600052603260045260246000fd5b8051600110156105095760400190565b8051600210156105095760600190565b8051600310156105095760800190565b6001600160e01b0319166307e4c70760e21b8103610580575073123456789012345678901234567890123456789090565b637a0ed62760e01b81149081156105d1575b81156105c0575b81156105af575b50156105aa573090565b600090565b6366ffd66360e11b149050386105a0565b6314bbdacb60e21b81149150610599565b6356fe50af60e11b8114915061059256fea264697066735822122050e658e47e644f0649e1ec9472ec8162082cbd1e50ffd716e353d100c4ea583664736f6c63430008110033",
  "linkReferences": {},
  "deployedLinkReferences": {}
}