{
  "_format": "hh-sol-artifact-1",
  "contractName": "MockTestFacet",
  "sourceName": "test/mocks/contracts/facets/MockTestFacet.sol",
  "abi": [
    {
      "inputs": [
        {
          "internalType": "uint256",
          "name": "a",
          "type": "uint256"
        },
        {
          "internalType": "uint256",
          "name": "b",
          "type": "uint256"
        }
      ],
      "name": "add",
      "outputs": [
        {
          "internalType": "uint256",
          "name": "",
          "type": "uint256"
        }
      ],
      "stateMutability": "pure",
      "type": "function"
    },
    {
      "inputs": [
        {
          "internalType": "uint256",
          "name": "a",
          "type": "uint256"
        },
        {
          "internalType": "uint256",
          "name": "b",
          "type": "uint256"
        }
      ],
      "name": "divide",
      "outputs": [
        {
          "internalType": "uint256",
          "name": "",
          "type": "uint256"
        }
      ],
      "stateMutability": "pure",
      "type": "function"
    },
    {
      "inputs": [],
      "name": "getValue",
      "outputs": [
        {
          "internalType": "uint256",
          "name": "",
          "type": "uint256"
        }
      ],
      "stateMutability": "view",
      "type": "function"
    },
    {
      "inputs": [],
      "name": "initialize",
      "outputs": [],
      "stateMutability": "nonpayable",
      "type": "function"
    },
    {
      "inputs": [],
      "name": "initialized",
      "outputs": [
        {
          "internalType": "bool",
          "name": "",
          "type": "bool"
        }
      ],
      "stateMutability": "view",
      "type": "function"
    },
    {
      "inputs": [
        {
          "internalType": "uint256",
          "name": "a",
          "type": "uint256"
        },
        {
          "internalType": "uint256",
          "name": "b",
          "type": "uint256"
        }
      ],
      "name": "multiply",
      "outputs": [
        {
          "internalType": "uint256",
          "name": "",
          "type": "uint256"
        }
      ],
      "stateMutability": "pure",
      "type": "function"
    },
    {
      "inputs": [],
      "name": "reinitialize",
      "outputs": [],
      "stateMutability": "nonpayable",
      "type": "function"
    },
    {
      "inputs": [
        {
          "internalType": "uint256",
          "name": "_value",
          "type": "uint256"
        }
      ],
      "name": "setValue",
      "outputs": [],
      "stateMutability": "nonpayable",
      "type": "function"
    },
    {
      "inputs": [
        {
          "internalType": "uint256",
          "name": "a",
          "type": "uint256"
        },
        {
          "internalType": "uint256",
          "name": "b",
          "type": "uint256"
        }
      ],
      "name": "subtract",
      "outputs": [
        {
          "internalType": "uint256",
          "name": "",
          "type": "uint256"
        }
      ],
      "stateMutability": "pure",
      "type": "function"
    },
    {
      "inputs": [],
      "name": "value",
      "outputs": [
        {
          "internalType": "uint256",
          "name": "",
          "type": "uint256"
        }
      ],
      "stateMutability": "view",
      "type": "function"
    }
  ],
  "bytecode": "0x60808060405234610016576102d5908161001c8239f35b600080fdfe60806040908082526004908136101561001757600080fd5b600090813560e01c908163158ef93e1461026357508063165c4a161461023757806320965255146101db5780633ef5e445146101f85780633fa4f245146101db57806355241077146101c25780636c2eb3501461019e578063771602f7146101625780638129fc1c146100f35763f88e9fbf1461009357600080fd5b346100f057506100a236610284565b909181156100b557506020925191048152f35b606490602085519162461bcd60e51b8352820152601560248201527443616e6e6f7420646976696465206279207a65726f60581b6044820152fd5b80fd5b5091903461015e578260031936011261015e576001549160ff8316610125578360018460ff191617600155602a815580f35b906020606492519162461bcd60e51b83528201526013602482015272105b1c9958591e481a5b9a5d1a585b1a5e9959606a1b6044820152fd5b8280fd5b50823461019a5761017236610284565b81939101809311610187576020838351908152f35b634e487b7160e01b815260118452602490fd5b5080fd5b50346100f057806003193601126100f057600160ff19815416176001556064815580f35b50903461019a57602036600319011261019a5735815580f35b50823461019a578160031936011261019a57602091549051908152f35b508290346100f05761020936610284565b9091908083111561022a578203918211610187575060209250905b51908152f35b5090506020925090610224565b50823461019a5761024736610284565b9290838102938185041490151715610187576020838351908152f35b90503461019a578160031936011261019a5760209060ff6001541615158152f35b604090600319011261029a576004359060243590565b600080fdfea2646970667358221220d58deeb1f236086042be060cdd8d87cb82730b2893e5ceccd42ad3b2aa47c0b564736f6c63430008110033",
  "linkReferences": {},
  "deployedLinkReferences": {}
}