{
  "_format": "hh-sol-artifact-1",
  "contractName": "MockTestFacet",
  "sourceName": "test/mocks/contracts/facets/MockTestFacet.sol",
  "abi": [
    {
      "inputs": [
        {
          "internalType": "uint256",
          "name": "a",
          "type": "uint256"
        },
        {
          "internalType": "uint256",
          "name": "b",
          "type": "uint256"
        }
      ],
      "name": "add",
      "outputs": [
        {
          "internalType": "uint256",
          "name": "",
          "type": "uint256"
        }
      ],
      "stateMutability": "pure",
      "type": "function"
    },
    {
      "inputs": [
        {
          "internalType": "uint256",
          "name": "a",
          "type": "uint256"
        },
        {
          "internalType": "uint256",
          "name": "b",
          "type": "uint256"
        }
      ],
      "name": "divide",
      "outputs": [
        {
          "internalType": "uint256",
          "name": "",
          "type": "uint256"
        }
      ],
      "stateMutability": "pure",
      "type": "function"
    },
    {
      "inputs": [],
      "name": "getValue",
      "outputs": [
        {
          "internalType": "uint256",
          "name": "",
          "type": "uint256"
        }
      ],
      "stateMutability": "view",
      "type": "function"
    },
    {
      "inputs": [],
      "name": "initialize",
      "outputs": [],
      "stateMutability": "nonpayable",
      "type": "function"
    },
    {
      "inputs": [],
      "name": "initialized",
      "outputs": [
        {
          "internalType": "bool",
          "name": "",
          "type": "bool"
        }
      ],
      "stateMutability": "view",
      "type": "function"
    },
    {
      "inputs": [
        {
          "internalType": "uint256",
          "name": "a",
          "type": "uint256"
        },
        {
          "internalType": "uint256",
          "name": "b",
          "type": "uint256"
        }
      ],
      "name": "multiply",
      "outputs": [
        {
          "internalType": "uint256",
          "name": "",
          "type": "uint256"
        }
      ],
      "stateMutability": "pure",
      "type": "function"
    },
    {
      "inputs": [],
      "name": "reinitialize",
      "outputs": [],
      "stateMutability": "nonpayable",
      "type": "function"
    },
    {
      "inputs": [
        {
          "internalType": "uint256",
          "name": "_value",
          "type": "uint256"
        }
      ],
      "name": "setValue",
      "outputs": [],
      "stateMutability": "nonpayable",
      "type": "function"
    },
    {
      "inputs": [
        {
          "internalType": "uint256",
          "name": "a",
          "type": "uint256"
        },
        {
          "internalType": "uint256",
          "name": "b",
          "type": "uint256"
        }
      ],
      "name": "subtract",
      "outputs": [
        {
          "internalType": "uint256",
          "name": "",
          "type": "uint256"
        }
      ],
      "stateMutability": "pure",
      "type": "function"
    },
    {
      "inputs": [],
      "name": "value",
      "outputs": [
        {
          "internalType": "uint256",
          "name": "",
          "type": "uint256"
        }
      ],
      "stateMutability": "view",
      "type": "function"
    }
  ],
  "bytecode": "0x608060405234801561001057600080fd5b50610338806100206000396000f3fe608060405234801561001057600080fd5b506004361061009e5760003560e01c80635524107711610066578063552410771461010a5780636c2eb3501461011f578063771602f7146101355780638129fc1c14610148578063f88e9fbf1461015057600080fd5b8063158ef93e146100a3578063165c4a16146100c557806320965255146100e65780633ef5e445146100ee5780633fa4f24514610101575b600080fd5b6001546100b09060ff1681565b60405190151581526020015b60405180910390f35b6100d86100d3366004610252565b610163565b6040519081526020016100bc565b6000546100d8565b6100d86100fc366004610252565b610178565b6100d860005481565b61011d610118366004610274565b600055565b005b61011d6001805460ff1916811790556064600055565b6100d8610143366004610252565b610192565b61011d61019e565b6100d861015e366004610252565b6101ff565b600061016f82846102a3565b90505b92915050565b600081831161018857600061016f565b61016f82846102ba565b600061016f82846102cd565b60015460ff16156101ec5760405162461bcd60e51b8152602060048201526013602482015272105b1c9958591e481a5b9a5d1a585b1a5e9959606a1b60448201526064015b60405180910390fd5b6001805460ff191681179055602a600055565b60008082116102485760405162461bcd60e51b815260206004820152601560248201527443616e6e6f7420646976696465206279207a65726f60581b60448201526064016101e3565b61016f82846102e0565b6000806040838503121561026557600080fd5b50508035926020909101359150565b60006020828403121561028657600080fd5b5035919050565b634e487b7160e01b600052601160045260246000fd5b80820281158282048414176101725761017261028d565b818103818111156101725761017261028d565b808201808211156101725761017261028d565b6000826102fd57634e487b7160e01b600052601260045260246000fd5b50049056fea2646970667358221220cf8549b8d3bbcb1842fa489c59faf89759b5d561f216ac03925ec7a9f083d53064736f6c63430008110033",
  "linkReferences": {},
  "deployedLinkReferences": {}
}