{
  "_format": "hh-sol-artifact-1",
  "contractName": "MockDiamond",
  "sourceName": "test/mocks/contracts/MockDiamond.sol",
  "abi": [
    {
      "inputs": [
        {
          "internalType": "address",
          "name": "_owner",
          "type": "address"
        },
        {
          "internalType": "address",
          "name": "_diamondCutFacet",
          "type": "address"
        }
      ],
      "stateMutability": "nonpayable",
      "type": "constructor"
    },
    {
      "anonymous": false,
      "inputs": [
        {
          "components": [
            {
              "internalType": "address",
              "name": "facetAddress",
              "type": "address"
            },
            {
              "internalType": "enum IDiamondCut.FacetCutAction",
              "name": "action",
              "type": "uint8"
            },
            {
              "internalType": "bytes4[]",
              "name": "functionSelectors",
              "type": "bytes4[]"
            }
          ],
          "indexed": false,
          "internalType": "struct IDiamondCut.FacetCut[]",
          "name": "_diamondCut",
          "type": "tuple[]"
        },
        {
          "indexed": false,
          "internalType": "address",
          "name": "_init",
          "type": "address"
        },
        {
          "indexed": false,
          "internalType": "bytes",
          "name": "_calldata",
          "type": "bytes"
        }
      ],
      "name": "DiamondCut",
      "type": "event"
    },
    {
      "stateMutability": "payable",
      "type": "fallback"
    },
    {
      "inputs": [],
      "name": "getFacetAddresses",
      "outputs": [
        {
          "internalType": "address[]",
          "name": "",
          "type": "address[]"
        }
      ],
      "stateMutability": "view",
      "type": "function"
    },
    {
      "inputs": [
        {
          "internalType": "bytes4",
          "name": "_selector",
          "type": "bytes4"
        }
      ],
      "name": "getFacetForSelector",
      "outputs": [
        {
          "internalType": "address",
          "name": "",
          "type": "address"
        }
      ],
      "stateMutability": "view",
      "type": "function"
    },
    {
      "inputs": [
        {
          "components": [
            {
              "internalType": "address",
              "name": "facetAddress",
              "type": "address"
            },
            {
              "internalType": "enum IDiamondCut.FacetCutAction",
              "name": "action",
              "type": "uint8"
            },
            {
              "internalType": "bytes4[]",
              "name": "functionSelectors",
              "type": "bytes4[]"
            }
          ],
          "internalType": "struct IDiamondCut.FacetCut[]",
          "name": "_diamondCut",
          "type": "tuple[]"
        },
        {
          "internalType": "address",
          "name": "_init",
          "type": "address"
        },
        {
          "internalType": "bytes",
          "name": "_calldata",
          "type": "bytes"
        }
      ],
      "name": "testDiamondCut",
      "outputs": [],
      "stateMutability": "nonpayable",
      "type": "function"
    },
    {
      "stateMutability": "payable",
      "type": "receive"
    }
  ],
  "bytecode": "0x60a0346101bb57601f61111838819003918201601f19168301916001600160401b038311848410176101c05780849260409485528339810103126101bb57610052602061004b836101d6565b92016101d6565b600080546001600160a01b03199081166001600160a01b0394851617825560808390526307e4c70760e21b825260016020527f04b67899e087d68fbcac935dea360d2b2615fd123c427fc4e811c29caaaa443980548216949093169384179092556002546801000000000000000093919290848110156101a7576001810180600255811015610193577f405787fa12a823e0f2b7631cc41b3ba8828b3321ca811111fa75cd3aa3bb5ace01805490911682179055815260036020526040812080549283101561017f576001830180825583101561016b5781602091631f931c1c9352208260031c019160e083549160051b1663ffffffff811b9283911b16911916179055604051610f2d90816101eb8239608051815050f35b634e487b7160e01b82526032600452602482fd5b634e487b7160e01b82526041600452602482fd5b634e487b7160e01b84526032600452602484fd5b634e487b7160e01b84526041600452602484fd5b600080fd5b634e487b7160e01b600052604160045260246000fd5b51906001600160a01b03821682036101bb5756fe6080604052600436101561001e575b361561001c5761001c61044f565b005b6000803560e01c9081633bed2f491461005d5750806368d49ba1146100545763ac642c0f0361000e5761004f6102d2565b61000e565b5061004f610144565b346100e357806003193601126100e357608060025480915260a090600283527f405787fa12a823e0f2b7631cc41b3ba8828b3321ca811111fa75cd3aa3bb5ace925b8181106100c4576100b3607f1984016101a1565b604051806100c0816100e6565b0390f35b83546001600160a01b031683526001938401936020909301920161009f565b80fd5b6020604081830192828152608051809452019160a09160005b82811061010d575050505090565b83516001600160a01b0316855293810193928101926001016100ff565b35906001600160e01b03198216820361013f57565b600080fd5b503461013f57602036600319011261013f5760043563ffffffff60e01b811680910361013f576000526001602052602060018060a01b0360406000205416604051908152f35b50634e487b7160e01b600052604160045260246000fd5b601f80199101166080016080811067ffffffffffffffff8211176101c457604052565b6101cc61018a565b604052565b6060810190811067ffffffffffffffff8211176101c457604052565b90601f8019910116810190811067ffffffffffffffff8211176101c457604052565b60209067ffffffffffffffff8111610229575b60051b0190565b61023161018a565b610222565b602435906001600160a01b038216820361013f57565b35906001600160a01b038216820361013f57565b60209067ffffffffffffffff811161027e575b601f01601f19160190565b61028661018a565b610273565b81601f8201121561013f578035906102a282610260565b926102b060405194856101ed565b8284526020838301011161013f57816000926020809301838601378301015290565b503461013f5760608060031936011261013f5767ffffffffffffffff9060043582811161013f573660238201121561013f578060040135906103138261020f565b926040610322815195866101ed565b8385526020938486019160249384600593841b8701019536871161013f57858101945b878610610377578a8a610356610236565b60443592831161013f5761037161001c93369060040161028b565b916108b9565b85358b811161013f57820183602319823603011261013f5784519061039b826101d1565b6103a689820161024c565b82526044908181013590600382101561013f578e918d850152606481013591821161013f57013660438201121561013f578b918a82013590806103e88361020f565b946103f58b5196876101ed565b8386528501928b1b8401019236841161013f57908e95939694929101905b86821061042e57505083945087820152815201950194610345565b9481929496939561043f829361012a565b81520191018d9492959391610413565b50600080356001600160e01b0319168152600160205260408120546001600160a01b0316801561049657818091368280378136915af43d82803e15610492573d90f35b3d90fd5b606460405162461bcd60e51b815260206004820152602060248201527f4469616d6f6e643a2046756e6374696f6e20646f6573206e6f742065786973746044820152fd5b600311156104e457565b634e487b7160e01b600052602160045260246000fd5b919082519283825260005b848110610526575050826000602080949584010152601f8019910116010190565b602081830181015184830182015201610505565b93929093606092838201848352865180915260809485840191868160051b860101966020809a01936000915b83831061059b5750505050505061058b90610598959683019060018060a01b03169052565b60408184039101526104fa565b90565b909192939498607f198882030183528951908681019060018060a01b0383511681528d83015160038110156104e457848f9493928592838201528a604080960151958201528451809452019201906000905b80821061060c5750505090806001929b01930193019194939290610566565b82516001600160e01b03191684528f949384019390920191600191909101906105ed565b50634e487b7160e01b600052601160045260246000fd5b6001906000198114610657570190565b61065f610630565b0190565b50634e487b7160e01b600052603260045260246000fd5b602091815181101561068f575b60051b010190565b610697610663565b610687565b91909180548310156106c0575b600052601c60206000208360031c019260021b1690565b6106c8610663565b6106a9565b6000198101919082116106dc57565b6106e4610630565b565b805480156107105760001901906106fd828261069c565b63ffffffff82549160031b1b1916905555565b634e487b7160e01b600052603160045260246000fd5b906107496106e492805490600160401b82101561076b575b60018201815561069c565b90919082549060031b9163ffffffff831b92839160e01c901b16911916179055565b61077361018a565b61073e565b6002548110156107b0575b60026000527f405787fa12a823e0f2b7631cc41b3ba8828b3321ca811111fa75cd3aa3bb5ace0190600090565b6107b8610663565b610783565b600254600160401b811015610830575b6001810180600255811015610823575b60026000527f405787fa12a823e0f2b7631cc41b3ba8828b3321ca811111fa75cd3aa3bb5ace0180546001600160a01b0319166001600160a01b03909216919091179055565b61082b610663565b6107dd565b61083861018a565b6107cd565b3d15610868573d9061084e82610260565b9161085c60405193846101ed565b82523d6000602084013e565b606090565b1561087457565b60405162461bcd60e51b815260206004820152601d60248201527f4469616d6f6e643a20496e69742066756e6374696f6e206661696c65640000006044820152606490fd5b929190926040937f8faa70878671ccd212d20771b795c50af8fd3ff6cf27f4bde57e5d4de0aeb6738551806108f08685878461053a565b0390a16000925b8251841015610ead5761090a848461067a565b519560208701805161091b816104da565b610924816104da565b610a915750600080600254905b818110610a2a575b505015610a11575b868101959360005b875180518210156109f757906109ed610976610968836109f29561067a565b516001600160e01b03191690565b8b516109be906001600160a01b03165b6001600160e01b03198316600090815260016020526040902080546001600160a01b0319166001600160a01b03909216919091179055565b8b516109e8906001600160a01b03165b6001600160a01b0316600090815260036020526040902090565b610726565b610647565b610949565b505094909550610a08919650610647565b929193946108f7565b8651610a25906001600160a01b03166107bd565b610941565b610a4b610a3682610778565b905460039190911b1c6001600160a01b031690565b8a51610a67906001600160a01b03165b6001600160a01b031690565b6001600160a01b0390911614610a8557610a8090610647565b610931565b50505060013880610939565b909593949196815191610aa3836104da565b610aac836104da565b6001928303610d1c5750908682016000825b610ad0575b50505050610a0890610647565b81518051821015610d165761096882610ae89261067a565b610b15610b088263ffffffff60e01b166000526001602052604060002090565b546001600160a01b031690565b6001600160a01b039190828116610bec575b508551919285929091610b5a91610b46906001600160a01b0316610986565b87516109e8906001600160a01b03166109ce565b60008093600254905b818610610b97575b5050610b7d92935015610b8357610647565b90610abe565b85516109ed906001600160a01b03166107bd565b9193610ba8610a3687939597610778565b89518490610bbe906001600160a01b0316610a5b565b911614610bd95750610bcf90610647565b9391869391610b63565b9492505050610b7d915082839238610b6b565b6001600160e01b03198216866000815b610c09575b505050610b27565b6001600160a01b038416600090815260036020526040902054811015610d115782610c6f610c62610c5584610c508960018060a01b03166000526003602052604060002090565b61069c565b90549060031b1c60e01b90565b6001600160e01b03191690565b14610c8357610c7d90610647565b81610bfc565b610d089250610d039150926109ce610b5a9594610749610ce3610c55610cbb8660018060a01b03166000526003602052604060002090565b6001600160a01b0387166000908152600360205260409020610cdd90546106cd565b9061069c565b6001600160a01b038516600090815260036020526040902090929061069c565b6106e6565b90388681610c01565b610c01565b50610ac3565b60029051610d29816104da565b610d32816104da565b14610d43575b5050610a0890610647565b86016000825b610d54575b50610d38565b81518051821015610ea75790610d6e61096882869461067a565b610d8e610b088263ffffffff60e01b166000526001602052604060002090565b90610dbf610daf8263ffffffff60e01b166000526001602052604060002090565b80546001600160a01b0319169055565b6001600160a01b038216610ddf575b5050610dd990610647565b90610d49565b6001600160e01b0319166000845b610df8575b50610dce565b610e18839495929360018060a01b03166000526003602052604060002090565b54811015610e9e5782610e47610c62610c5584610c508960018060a01b03166000526003602052604060002090565b14610e5f57610e5590610647565b8194939291610ded565b610e9691949250836109ce610d0392610749610ce3610c55610cbb610dd99a60018060a01b03166000526003602052604060002090565b903880610df2565b81949350610df2565b50610d4e565b939450929150506001600160a01b038216151580610eed575b610ece575050565b6000816106e49360208394519201905af4610ee761083d565b5061086d565b5080511515610ec656fea2646970667358221220be9024ee18f944c610e4492cf64fcdb543d01727536315312ead7506858baa9f64736f6c63430008110033",
  "linkReferences": {},
  "deployedLinkReferences": {}
}