{
  "_format": "hh-sol-artifact-1",
  "contractName": "MockDiamond",
  "sourceName": "test/mocks/contracts/MockDiamond.sol",
  "abi": [
    {
      "inputs": [
        {
          "internalType": "address",
          "name": "_owner",
          "type": "address"
        },
        {
          "internalType": "address",
          "name": "_diamondCutFacet",
          "type": "address"
        }
      ],
      "stateMutability": "nonpayable",
      "type": "constructor"
    },
    {
      "anonymous": false,
      "inputs": [
        {
          "components": [
            {
              "internalType": "address",
              "name": "facetAddress",
              "type": "address"
            },
            {
              "internalType": "enum IDiamondCut.FacetCutAction",
              "name": "action",
              "type": "uint8"
            },
            {
              "internalType": "bytes4[]",
              "name": "functionSelectors",
              "type": "bytes4[]"
            }
          ],
          "indexed": false,
          "internalType": "struct IDiamondCut.FacetCut[]",
          "name": "_diamondCut",
          "type": "tuple[]"
        },
        {
          "indexed": false,
          "internalType": "address",
          "name": "_init",
          "type": "address"
        },
        {
          "indexed": false,
          "internalType": "bytes",
          "name": "_calldata",
          "type": "bytes"
        }
      ],
      "name": "DiamondCut",
      "type": "event"
    },
    {
      "stateMutability": "payable",
      "type": "fallback"
    },
    {
      "inputs": [],
      "name": "getFacetAddresses",
      "outputs": [
        {
          "internalType": "address[]",
          "name": "",
          "type": "address[]"
        }
      ],
      "stateMutability": "view",
      "type": "function"
    },
    {
      "inputs": [
        {
          "internalType": "bytes4",
          "name": "_selector",
          "type": "bytes4"
        }
      ],
      "name": "getFacetForSelector",
      "outputs": [
        {
          "internalType": "address",
          "name": "",
          "type": "address"
        }
      ],
      "stateMutability": "view",
      "type": "function"
    },
    {
      "inputs": [
        {
          "components": [
            {
              "internalType": "address",
              "name": "facetAddress",
              "type": "address"
            },
            {
              "internalType": "enum IDiamondCut.FacetCutAction",
              "name": "action",
              "type": "uint8"
            },
            {
              "internalType": "bytes4[]",
              "name": "functionSelectors",
              "type": "bytes4[]"
            }
          ],
          "internalType": "struct IDiamondCut.FacetCut[]",
          "name": "_diamondCut",
          "type": "tuple[]"
        },
        {
          "internalType": "address",
          "name": "_init",
          "type": "address"
        },
        {
          "internalType": "bytes",
          "name": "_calldata",
          "type": "bytes"
        }
      ],
      "name": "testDiamondCut",
      "outputs": [],
      "stateMutability": "nonpayable",
      "type": "function"
    },
    {
      "stateMutability": "payable",
      "type": "receive"
    }
  ],
  "bytecode": "0x60a060405234801561001057600080fd5b506040516111bf3803806111bf83398101604081905261002f9161011c565b600080546001600160a01b03199081166001600160a01b039485161782559190921660808190527f04b67899e087d68fbcac935dea360d2b2615fd123c427fc4e811c29caaaa443980548316821790556002805460018181019092557f405787fa12a823e0f2b7631cc41b3ba8828b3321ca811111fa75cd3aa3bb5ace0180549093168217909255825260036020908152604083208054928301815583529091206008820401805463ffffffff60079093166004026101000a9283021916631f931c1c90920291909117905561014f565b80516001600160a01b038116811461011757600080fd5b919050565b6000806040838503121561012f57600080fd5b61013883610100565b915061014660208401610100565b90509250929050565b608051611058610167600039600050506110586000f3fe6080604052600436106100385760003560e01c80633bed2f49146100da57806368d49ba114610105578063ac642c0f1461015d5761003f565b3661003f57005b600080356001600160e01b0319168152600160205260409020546001600160a01b0316806100b45760405162461bcd60e51b815260206004820181905260248201527f4469616d6f6e643a2046756e6374696f6e20646f6573206e6f7420657869737460448201526064015b60405180910390fd5b3660008037600080366000845af43d6000803e8080156100d3573d6000f35b3d6000fd5b005b3480156100e657600080fd5b506100ef61017d565b6040516100fc9190610ade565b60405180910390f35b34801561011157600080fd5b50610145610120366004610b48565b6001600160e01b0319166000908152600160205260409020546001600160a01b031690565b6040516001600160a01b0390911681526020016100fc565b34801561016957600080fd5b506100d8610178366004610c85565b6101df565b606060028054806020026020016040519081016040528092919081815260200182805480156101d557602002820191906000526020600020905b81546001600160a01b031681526001909101906020018083116101b7575b5050505050905090565b7f8faa70878671ccd212d20771b795c50af8fd3ff6cf27f4bde57e5d4de0aeb67383838360405161021293929190610e92565b60405180910390a160005b8351811015610a0d57600084828151811061023a5761023a610f92565b602002602001015190506000600281111561025757610257610e2c565b8160200151600281111561026d5761026d610e2c565b036103f7576000805b6002548110156102d65782600001516001600160a01b0316600282815481106102a1576102a1610f92565b6000918252602090912001546001600160a01b0316036102c457600191506102d6565b806102ce81610fbe565b915050610276565b508061032e578151600280546001810182556000919091527f405787fa12a823e0f2b7631cc41b3ba8828b3321ca811111fa75cd3aa3bb5ace0180546001600160a01b0319166001600160a01b039092169190911790555b60005b8260400151518110156103f05760008360400151828151811061035657610356610f92565b60209081029190910181015185516001600160e01b0319821660009081526001808552604080832080546001600160a01b0319166001600160a01b039586161790558951909316825260038552918120805492830181558152929092206008830401805463ffffffff60079094166004026101000a938402191660e09290921c9290920217905550806103e881610fbe565b915050610331565b50506109fa565b60018160200151600281111561040f5761040f610e2c565b036107905760005b81604001515181101561078a5760008260400151828151811061043c5761043c610f92565b6020908102919091018101516001600160e01b03198116600090815260019092526040909120549091506001600160a01b0316801561063b5760005b6001600160a01b038216600090815260036020526040902054811015610639576001600160a01b038216600090815260036020526040902080546001600160e01b031985169190839081106104cf576104cf610f92565b90600052602060002090600891828204019190066004029054906101000a900460e01b6001600160e01b03191603610627576001600160a01b0382166000908152600360205260409020805461052790600190610fd7565b8154811061053757610537610f92565b90600052602060002090600891828204019190066004029054906101000a900460e01b60036000846001600160a01b03166001600160a01b03168152602001908152602001600020828154811061059057610590610f92565b90600052602060002090600891828204019190066004026101000a81548163ffffffff021916908360e01c021790555060036000836001600160a01b03166001600160a01b031681526020019081526020016000208054806105f4576105f4610ff0565b600082815260209020600860001990920191820401805463ffffffff600460078516026101000a02191690559055610639565b8061063181610fbe565b915050610478565b505b83516001600160e01b03198316600090815260016020818152604080842080546001600160a01b0319166001600160a01b0396871617905588519094168352600381529282208054918201815582529181206008830401805463ffffffff60079094166004026101000a938402191660e086901c9390930292909217909155805b60025481101561071c5785600001516001600160a01b0316600282815481106106e7576106e7610f92565b6000918252602090912001546001600160a01b03160361070a576001915061071c565b8061071481610fbe565b9150506106bc565b5080610774578451600280546001810182556000919091527f405787fa12a823e0f2b7631cc41b3ba8828b3321ca811111fa75cd3aa3bb5ace0180546001600160a01b0319166001600160a01b039092169190911790555b505050808061078290610fbe565b915050610417565b506109fa565b6002816020015160028111156107a8576107a8610e2c565b036109fa5760005b8160400151518110156109f8576000826040015182815181106107d5576107d5610f92565b6020908102919091018101516001600160e01b0319811660009081526001909252604090912080546001600160a01b031981169091559091506001600160a01b031680156109e35760005b6001600160a01b0382166000908152600360205260409020548110156109e1576001600160a01b038216600090815260036020526040902080546001600160e01b0319851691908390811061087757610877610f92565b90600052602060002090600891828204019190066004029054906101000a900460e01b6001600160e01b031916036109cf576001600160a01b038216600090815260036020526040902080546108cf90600190610fd7565b815481106108df576108df610f92565b90600052602060002090600891828204019190066004029054906101000a900460e01b60036000846001600160a01b03166001600160a01b03168152602001908152602001600020828154811061093857610938610f92565b90600052602060002090600891828204019190066004026101000a81548163ffffffff021916908360e01c021790555060036000836001600160a01b03166001600160a01b0316815260200190815260200160002080548061099c5761099c610ff0565b600082815260209020600860001990920191820401805463ffffffff600460078516026101000a021916905590556109e1565b806109d981610fbe565b915050610820565b505b505080806109f090610fbe565b9150506107b0565b505b5080610a0581610fbe565b91505061021d565b506001600160a01b03821615801590610a27575060008151115b15610ad9576000826001600160a01b031682604051610a469190611006565b600060405180830381855af49150503d8060008114610a81576040519150601f19603f3d011682016040523d82523d6000602084013e610a86565b606091505b5050905080610ad75760405162461bcd60e51b815260206004820152601d60248201527f4469616d6f6e643a20496e69742066756e6374696f6e206661696c656400000060448201526064016100ab565b505b505050565b6020808252825182820181905260009190848201906040850190845b81811015610b1f5783516001600160a01b031683529284019291840191600101610afa565b50909695505050505050565b80356001600160e01b031981168114610b4357600080fd5b919050565b600060208284031215610b5a57600080fd5b610b6382610b2b565b9392505050565b634e487b7160e01b600052604160045260246000fd5b6040516060810167ffffffffffffffff81118282101715610ba357610ba3610b6a565b60405290565b604051601f8201601f1916810167ffffffffffffffff81118282101715610bd257610bd2610b6a565b604052919050565b600067ffffffffffffffff821115610bf457610bf4610b6a565b5060051b60200190565b80356001600160a01b0381168114610b4357600080fd5b600082601f830112610c2657600080fd5b813567ffffffffffffffff811115610c4057610c40610b6a565b610c53601f8201601f1916602001610ba9565b818152846020838601011115610c6857600080fd5b816020850160208301376000918101602001919091529392505050565b600080600060608486031215610c9a57600080fd5b67ffffffffffffffff8085351115610cb157600080fd5b8435850186601f820112610cc457600080fd5b610cd6610cd18235610bda565b610ba9565b81358082526020808301929160051b84010189811115610cf557600080fd5b602084015b81811015610ded578581351115610d1057600080fd5b803585016060818d03601f19011215610d2857600080fd5b610d30610b80565b610d3c60208301610bfe565b8152604082013560038110610d5057600080fd5b6020820152606082013588811115610d6757600080fd5b8083019250508c603f830112610d7c57600080fd5b6020820135610d8d610cd182610bda565b81815260059190911b83016040019060208101908f831115610dae57600080fd5b6040850194505b82851015610dd757610dc685610b2b565b825260209485019490910190610db5565b6040840152505085525060209384019301610cfa565b5050809650505050610e0160208601610bfe565b9250604085013581811115610e1557600080fd5b610e2187828801610c15565b925050509250925092565b634e487b7160e01b600052602160045260246000fd5b60005b83811015610e5d578181015183820152602001610e45565b50506000910152565b60008151808452610e7e816020860160208601610e42565b601f01601f19169290920160200192915050565b60006060808301818452808751808352608092508286019150828160051b8701016020808b0160005b84811015610f6257898403607f19018652815180516001600160a01b03168552838101518986019060038110610f0157634e487b7160e01b600052602160045260246000fd5b868601526040918201519186018a905281519081905290840190600090898701905b80831015610f4d5783516001600160e01b0319168252928601926001929092019190860190610f23565b50978501979550505090820190600101610ebb565b50506001600160a01b038a16908801528681036040880152610f848189610e66565b9a9950505050505050505050565b634e487b7160e01b600052603260045260246000fd5b634e487b7160e01b600052601160045260246000fd5b600060018201610fd057610fd0610fa8565b5060010190565b81810381811115610fea57610fea610fa8565b92915050565b634e487b7160e01b600052603160045260246000fd5b60008251611018818460208701610e42565b919091019291505056fea26469706673582212209f6d220202ecf00b3c17daf55edd26ea6f4b83dbceb701bd5943439c87ab369c64736f6c63430008110033",
  "linkReferences": {},
  "deployedLinkReferences": {}
}